:0802070002080000020A0000D9
:10021800758901758CFC758A18D28CD2A9D2AF2247
:1001EA00120218C291C292C280D281D282C28312F2
:0D01FA00013F12011012019D12016E80EAFA
:03000B0002009A56
:10009A00C0E0C0D075D000C000758CFC758A180508
:1000AA0009E50970020508C39464E5086480948030
:1000BA004006750800750900C3E509950DE50C644D
:1000CA0080F8E5086480984004D2918002C29105C4
:1000DA000BE50B7002050AC39464E50A64809480F8
:1000EA004006750A00750B00C3E50B950FE50E6413
:1000FA0080F8E50A6480984004D2928002C292D0C5
:06010A0000D0D0D0E0326D
:08020F00020C0000020E0000C9
:1001100020A32B7F0A7E001201CC20A32130A3FD57
:100120007405250DF50DE4350CF50CC3E50D94644F
:0F013000E50C648094804006750C00750D642208
:10013F0020A12B7F0A7E001201CC20A12130A1FD2E
:10014F0074FB250DF50D74FF350CF50CD3E50D94EF
:0F015F0000E50C648094805005E4F50CF50D224A
:10016E0020A02B7F0A7E001201CC20A02130A0FD02
:10017E007405250FF50FE4350EF50EC3E50F9464E7
:0F018E00E50E648094804006750E00750F6422A4
:10019D0020A22B7F0A7E001201CC20A22130A2FDCD
:1001AD0074FB250FF50F74FF350EF50ED3E50F9487
:0F01BD0000E50E648094805005E4F50EF50F22E6
:1001CC00D3EF9400EE940040147D6E7C00ED1D7016
:0D01DC00011CED4C70F7EF1F70E61E80E374
:0101E90022F3
:0300000002000EED
:0C000E00787FE4F6D8FD75810F020055E4
:10001A000201EAE493A3F8E493A34003F68001F211
:10002A0008DFF48029E493A3F85407240CC8C333E7
:10003A00C4540F4420C8834004F456800146F6DFB6
:10004A00E4800B0102040810204080900207E47E3D
:10005A00019360BCA3FF543F30E509541FFEE493AB
:10006A00A360010ECF54C025E060A840B8E493A372
:10007A00FAE493A3F8E493A3C8C582C8CAC583CA9D
:10008A00F0A3C8C582C8CAC583CADFE9DEE780BE55
:0102170000E6
:00000001FF
