:100003007580FF7590FF75A0FF75B0FF7F647E005C
:100013001202231202B920A3227F0A7E0012024396
:1000230020A3187BFF7A0279A51200C31201FEEF09
:1000330070FAC2807F0A7E0012024320A1227F0A47
:100043007E0012024320A1187BFF7A0279A61200D8
:10005300C31201FEEF70FAC2817F0A7E00120243CF
:1000630020A2227F0A7E0012024320A2187BFF7A7D
:100073000279A71200C31201FEEF70FAC2827F0A4F
:100083007E0012024320A0257F0A7E001202432035
:10009300A0847BFF7A0279A81200C31201FEEF70DD
:1000A300FAC2837F0A7E00120243020019D280D271
:1000B30081D282D283D284D285D286D2870200199A
:10022300E4FDFCC3ED9FEC9E5015E4FBFA0BBB0011
:0F023300010AEB640C4A70F50DBD00010C80E46C
:010242002299
:10024300E4FDFCC3ED9FEC9E5015E4FBFA0BBB00F1
:0F025300010AEB64784A70F50DBD00010C80E4E0
:010262002279
:0D02A0003443101001FEFBFDF7EFDFBF7FC0
:0902B900C293D294C297D29222A2
:10026300E4FEEF30E704D2958002C295EF25E0FF6C
:0E027300D297309603430701C2970EBE08E4EF
:01028100225A
:10028200C294120263AC07AF05120263D294AF04A8
:010292002249
:0C029300C294120263E4FF120263D294D2
:01029F00223C
:060175008B1A8A1B891C95
:10017B00C294120263AD07E4FCECC3951D5017E467
:10018B00FF120263AB1AAA1BA91C8C82758300EFAA
:0A019B001201530C80E3D294AF056B
:0101A5002237
:0601A6008B158A16891773
:1001AC00C294120263AD07E4FCECC395185015AB76
:1001BC0015AA16A9178C82758300120126FF12024C
:0801CC00630C80E5D294AF053D
:0101D4002208
:1000C3008B118A128913C2937BFF7A0279A0751868
:1000D300057F301201A67BFF7A0279A07518057F90
:1000E3002A1201A6AB11AA12A9137518087FA01230
:1000F30001A67D017F211202827F221202827D0AE4
:100103007F241202827D407F251202827D077F2693
:100113001202827D0E7F20120282D2937F057E001F
:0301230002024392
:1001D5007F071202938F08E50830E613C2937B0070
:1001E5007A007909751D087F61120175751E017DFB
:0801F500FF7F27120282AF1EFA
:0101FD0022DF
:1001FE007F071202938F08E50820E50330E4137D94
:10020E00FF7F27120282C2947FE1120263D2947F93
:05021E0000227F012217
:030000000202AD4C
:0C02AD00787FE4F6D8FD75811E02000386
:10012600BB010CE58229F582E5833AF583E022508E
:1001360006E92582F8E622BBFE06E92582F8E222D8
:0D014600E58229F582E5833AF583E49322F2
:10015300F8BB010DE58229F582E5833AF583E8F0E2
:10016300225006E92582C8F622BBFE05E92582C88E
:02017300F22276
:00000001FF
