:0802560002080000020A00008A
:10026700758901758CFC758A18D28CD2A9D2AF22F8
:10021800120267C294C295C280D281D282C283126E
:10022800018B12015C1201E91201BA12011080EF70
:03000B0002009A56
:10009A00C0E0C0D075D000C000758CFC758A180508
:1000AA0009E50970020508C39464E5086480948030
:1000BA004006750800750900C3E509950DE50C644D
:1000CA0080F8E5086480984004D2948002C29405BE
:1000DA000BE50B7002050AC39464E50A64809480F8
:1000EA004006750A00750B00C3E50B950FE50E6413
:1000FA0080F8E50A6480984004D2958002C295D0BF
:06010A0000D0D0D0E0326D
:09027700C280D281D282C283222E
:09028000D280C281D282C2832225
:09028900C280D281C282D283221C
:09029200C280C281D282C2832223
:09029B00C280D281C282C283221A
:1001100020900C2091092092062093030202772060
:10012000900C20910930920630930302029B30908C
:100130000C30910920920620930302029230900C19
:1001400030910930920620930302028020900C30F7
:0C015000910930920630930312028922BC
:08025E00020C0028020E00282A
:10015C0020A32B7F0A7E0012023820A32130A3FD9E
:10016C007405250DF50DE4350CF50CC3E50D946403
:0F017C00E50C648094804006750C00750D6422BC
:10018B0020A12B7F0A7E0012023820A12130A1FD75
:10019B0074FB250DF50D74FF350CF50CD3E50D94A3
:0F01AB0000E50C648094805005E4F50CF50D22FE
:1001BA0020A02B7F0A7E0012023820A02130A0FD49
:1001CA007405250FF50FE4350EF50EC3E50F94649B
:0F01DA00E50E648094804006750E00750F642258
:1001E90020A22B7F0A7E0012023820A22130A2FD14
:1001F90074FB250FF50F74FF350EF50ED3E50F943B
:0F02090000E50E648094805005E4F50EF50F2299
:10023800D3EF9400EE940040147D6E7C00ED1D70A9
:0D024800011CED4C70F7EF1F70E61E80E307
:010255002286
:0300000002000EED
:0C000E00787FE4F6D8FD75810F020055E4
:10001A00020218E493A3F8E493A34003F68001F2E2
:10002A0008DFF48029E493A3F85407240CC8C333E7
:10003A00C4540F4420C8834004F456800146F6DFB6
:10004A00E4800B0102040810204080900256E47EEE
:10005A00019360BCA3FF543F30E509541FFEE493AB
:10006A00A360010ECF54C025E060A840B8E493A372
:10007A00FAE493A3F8E493A3C8C582C8CAC583CA9D
:10008A00F0A3C8C582C8CAC583CADFE9DEE780BE55
:010266000097
:00000001FF
