:08042C00021B0000021D00008C
:10044E00758901758CFC758A18D28CD2A9D2AF220F
:1003AD0012044EC294C295C280D281D282C28312EF
:1003BD0003201202F112037E12034F12021380EF7B
:03000B0002009A56
:10009A00C0E0C0D075D000C000758CFC758A180508
:1000AA001CE51C7002051BC39464E51B64809480E4
:1000BA004006751B00751C00C3E51C9520E51F64EE
:1000CA0080F8E51B6480984004D2948002C29405AB
:1000DA001EE51E7002051DC39464E51D64809480AC
:1000EA004006751D00751E00C3E51E9522E52164B4
:1000FA0080F8E51D6480984004D2958002C295D0AC
:06010A0000D0D0D0E0326D
:1003CD00E4FDFCC3ED9FEC9E5015E4FBFA0BBB0066
:0F03DD00010AEB640B4A70F50DBD00010C80E4C2
:0103EC0022EE
:1003ED00E4FDFCC3ED9FEC9E5015E4FBFA0BBB0046
:0F03FD00010AEB646E4A70F50DBD00010C80E43F
:01040C0022CD
:0D047B003443101001FEFDFBF7EFDFBF7FE3
:10045E007FD07E071203CDC293D294C297D292223E
:10040D00E4FEEF30E704D2958002C295EF25E0FFC0
:0E041D00D297309603430701C2970EBE08E443
:01042B0022AE
:10043D00C29412040DAC07AF0512040DD294AF0493
:01044D00228C
:0C046E00C29412040DE4FF12040DD2949D
:01047A00225F
:060291008B128A13891490
:10029700C29412040DAD07E4FCECC395155017E4A6
:1002A700FF12040DAB12AA13A9148C82758300EFF9
:0A02B7001201F10C80E3D294AF05B0
:0102C100221A
:0602C2008B178A18891950
:1002C800C29412040DAD07E4FCECC3951A5015ABAB
:1002D80017AA18A9198C827583001201C4FF120489
:0802E8000D0C80E5D294AF0576
:0102F00022EB
:10016E00C2937BFF7A04797B751A057F301202C227
:10017E007BFF7A04797B751A057F2A1202C27D01F4
:10018E007F2112043D7F2212043D7D0A7F2412043A
:10019E003D7D087F3112043D7D407F2512043D7D5B
:1001AE00077F2612043D7D0F7F2012043DD2937FE0
:0601BE00057E000203EDC6
:10025F007F0712046E8F08E50830E623C2937B00F8
:10026F007A0079097515087F611202917DFF7F274A
:10027F0012043DC2947FE212040DD2947F01227FBB
:02028F0000224B
:09048800C280D281D282C283221B
:09049100C280C281C282C2832232
:09049A00D280C281C282D2832209
:0904A300D280C281D282C2832200
:0904AC00C280D281C282D28322F7
:0904B500C280C281D282C28322FE
:0904BE00C280D281C282C28322F5
:100110007FE87E031203CD12045E12016E7F647EBF
:10012000001203ED12025FEF603AE509B4FE03121C
:100130000488E509B4FB0312049AE509B4FD03122F
:1001400004B5E509B4F7031204BEE509B4EF0312E0
:1001500004ACE509B4DF03120491E509B4BFBB1296
:0E01600004A380B6C280C281C282C28380AC7A
:1002130030900C30910930920630930302048830F9
:10022300900C3091092092063093030204B530906C
:100233000C2091093092063093030204BE20900CE7
:100243003091093092063093030204AC30900C30A5
:0C02530091093092062093031204A322AC
:08043400021F0028022100282C
:1002F10020A32B7F0A7E001203ED20A32130A3FD52
:1003010074052520F520E4351FF51FC3E52094640D
:0F031100E51F648094804006751F0075206422EC
:1003200020A12B7F0A7E001203ED20A12130A1FD28
:1003300074FB2520F52074FF351FF51FD3E52094AD
:0F03400000E51F648094805005E4F51FF520222E
:10034F0020A02B7F0A7E001203ED20A02130A0FDFC
:10035F0074052522F522E43521F521C3E5229464A5
:0F036F00E5216480948040067521007522642288
:10037E0020A22B7F0A7E001203ED20A22130A2FDC7
:10038E0074FB2522F52274FF3521F521D3E5229445
:0F039E0000E521648094805005E4F521F52222CA
:0300000002000EED
:0C000E00787FE4F6D8FD758122020055D1
:1001C400BB010CE58229F582E5833AF583E02250F0
:1001D40006E92582F8E622BBFE06E92582F8E2223A
:0D01E400E58229F582E5833AF583E4932254
:1001F100F8BB010DE58229F582E5833AF583E8F044
:10020100225006E92582C8F622BBFE05E92582C8EF
:02021100F222D7
:10001A000203ADE493A3F8E493A34003F68001F24C
:10002A0008DFF48029E493A3F85407240CC8C333E7
:10003A00C4540F4420C8834004F456800146F6DFB6
:10004A00E4800B010204081020408090042CE47E16
:10005A00019360BCA3FF543F30E509541FFEE493AB
:10006A00A360010ECF54C025E060A840B8E493A372
:10007A00FAE493A3F8E493A3C8C582C8CAC583CA9D
:10008A00F0A3C8C582C8CAC583CADFE9DEE780BE55
:01043C0000BF
:00000001FF
