:020000040800F2
:1000000068070020D1040008A5020008A702000824
:10001000AB020008AF020008B302000800000000B5
:10002000000000000000000000000000B70200080F
:10003000B902000800000000BB020008BD02000871
:10004000EB040008EB040008EB040008EB040008D4
:10005000EB040008EB040008EB040008EB040008C4
:10006000EB040008EB040008EB040008EB040008B4
:10007000EB040008EB040008EB040008EB040008A4
:10008000EB040008EB040008EB040008EB04000894
:10009000EB040008EB040008EB040008EB04000884
:1000A000EB040008EB040008EB040008EB04000874
:1000B000EB040008EB040008EB040008EB04000864
:1000C000EB040008EB040008EB040008EB04000854
:1000D000EB040008231B0008EB040008EB040008F5
:1000E000EB040008EB040008EB040008EB04000834
:1000F000EB040008EB040008EB040008EB04000824
:10010000EB040008EB040008EB040008EB04000813
:10011000EB040008EB040008EB040008EB04000803
:10012000EB040008EB040008EB040008EB040008F3
:10013000EB040008EB040008EB040008EB040008E3
:10014000EB040008EB040008EB040008EB040008D3
:10015000EB040008EB040008EB040008EB040008C3
:10016000EB040008EB040008EB040008EB040008B3
:10017000EB040008EB040008EB040008EB040008A3
:10018000EB040008EB04000800F002F800F03CF873
:100190000AA090E8000C82448344AAF10107DA45E2
:1001A00001D100F031F8AFF2090EBAE80F0013F0F8
:1001B000010F18BFFB1A43F001031847AC2B0000D6
:1001C000CC2B0000103A24BF78C878C1FAD8520767
:1001D00024BF30C830C144BF04680C6070470000C1
:1001E0000023002400250026103A28BF78C1FBD840
:1001F000520728BF30C148BF0B6070471FB502F0DF
:10020000ADFD1FBD10B510BD02F0D1F81146FFF7CE
:10021000F5FF00F009F802F0EFF803B4FFF7F2FF82
:1002200003BC02F0F3F80000A82001F083F819489D
:1002300001F014FC01F0D4FD01F01CFA00BF01F044
:100240004DF90128FBD100BF01F0CAF80128FBD10C
:1002500002F091F81CE0582001F057FE482001F010
:100260008AFE0D4890ED000B51EC100B02F012FBD2
:1002700084B20A4890ED000B51EC100B02F0DAFA50
:100280000546214601F05DFD4021054800F0B4FA25
:10029000E1E7000020A107005000002060000020DE
:1002A00000100240704700BFFEE700BFFEE700BF3E
:1002B000FEE700BFFEE770477047704770470000D9
:1002C0000CB50020019000907648006840F4803022
:1002D0007449086000BF7348006800F40030009063
:1002E0000198401C0190009818B90198B0F5A04FF2
:1002F000F1D16C48006800F4003010B1012000908A
:1003000001E0002000900098012846D16548403067
:10031000006840F0805063494031086062480068DE
:1003200040F44040604908605E48083000685D491C
:10033000083108600846006840F40040086008463C
:10034000006840F4A05008605848091F0860081F62
:10035000006840F08070091F086000BF51480068C5
:1003600000F000700028F9D040F205705049086094
:100370004C480830006820F003004A490831086002
:100380000846006840F00200086000BF4548083099
:10039000006800F00C000828F8D10CBD10B54548E5
:1003A000006840F47000434908603E48006840F02F
:1003B00001003C49086000203A490831086039488A
:1003C00000683D490840374908603C48091D0860FD
:1003D000081F006820F48020091F086000203149B0
:1003E0000C310860FFF76CFF4FF000603149803935
:1003F000086010BD70B500200022022300240221F5
:10040000284D08352D6805F00C0020B1042806D0D1
:10041000082834D107E02A4D2A4E356033E02A4DB2
:10042000284E35602FE01F4D2D1D2D68C5F38054DB
:100430001C4D2D1D2D6805F03F0154B1224DB5FB1B
:10044000F1F5184E361D3668C6F3881605FB06F220
:1004500009E01B4DB5FBF1F5124E361D3668C6F3AB
:10046000881605FB06F20F4D2D1D2D68C5F30145BD
:100470006D1C6B00B2FBF3F5124E356003E0104DBE
:10048000104E356000BF00BF064D08352D68C5F31E
:1004900003150E4E705D0B4D2D68C540094E35603D
:1004A00070BD000000380240007000400854400752
:1004B000003C024088ED00E0FFFFF6FE1030002413
:1004C0000024F4000000002000127A000400002044
:1004D0000948804709480047FEE7FEE7FEE7FEE7D8
:1004E000FEE7FEE7FEE7FEE7FEE7FEE70448054914
:1004F000054A064B704700009D030008890100086B
:1005000068010020680700206803002068030020BD
:1005100032490143324A1160704770B5002100230F
:100520000F22C4781CB32E4C246804F4E064C4F594
:10053000E064C4F30721C1F10404E3B20A41447842
:100540009C40E1B28478144021430C07210E254CD5
:1005500005786155047804F01F050124AC40057846
:100560006D11AD0005F1E025C5F8004109E0047802
:1005700004F01F050124AC401B4D0678761145F8A8
:10058000264070BD194A0A400243154B1B1F1A60D2
:10059000704739B1124A121D12680243104B1B1DDD
:1005A0001A6006E00E4A121D126882430C4B1B1D96
:1005B0001A607047042808D14FF0E021096941F022
:1005C00004014FF0E022116107E04FF0E0210969DA
:1005D00021F004014FF0E022116170470000FA059C
:1005E0000CED00E000E400E080E100E080FFFF1F90
:1005F00010B504469848844208D10121084600F00D
:1006000086FB0021012000F082FB76E093488442C3
:1006100008D10121022000F07AFB0021022000F025
:1006200076FB6AE08E48844208D10121042000F064
:100630006EFB0021042000F06AFB5EE089488442E2
:1006400008D10121082000F062FB0021082000F001
:100650005EFB52E08448844208D10121102000F062
:1006600056FB0021102000F052FB46E07F488442F8
:1006700008D10121202000F04AFB0021202000F0B9
:1006800046FB3AE07A48844208D10121402000F03C
:100690003EFB0021402000F03AFB2EE075488442EA
:1006A00008D10121802000F032FB0021802000F0E1
:1006B0002EFB22E07048844208D10121801500F011
:1006C00026FB0021A01500F022FB16E06B488442B7
:1006D00008D10121401500F01AFB0021601500F03F
:1006E00016FB0AE06648844207D10121001500F09C
:1006F0000EFB0021201500F00AFB10BDF0B50A46E4
:1007000000210023002400BF3DE0012505FA01F38C
:10071000156805EA03049C4234D105684F0003269E
:10072000BE40B543056015794E00B54006683543B7
:1007300005601579012D02D01579022D16D1856835
:100740004F000326BE40B543856055794E00B54045
:10075000866835438560456801268E40B54345600F
:10076000456896798E40B6B235434560C5684F00FE
:100770000326BE40B543C560D5794E00B540C66876
:100780003543C560491C1029BFD3F0BD4FF6FF713A
:1007900001600021017141718171C171704708B51B
:1007A0004FF480320092009A0A430092009AC2618C
:1007B000C161009AC261C2690092C269009208BD1B
:1007C0000246002013690B400BB1012000E000201D
:1007D00070470146086980B270470246002053699D
:1007E0000B400BB1012000E0002070470146486932
:1007F00080B2704701837047418370470AB101831B
:1008000000E0418370474161704742694A4042615C
:100810007047F0B5002300244D07ED0E02FA05F3F2
:10082000CE1000F1200555F826504E07F70E0F2682
:10083000BE40B543CF1000F1200646F82750CE1039
:1008400000F1200555F8265045EA0304CE1000F1CA
:10085000200545F82640F0BD00000240000402409B
:1008600000080240000C0240001002400014024048
:1008700000180240001C02400020024000240240F8
:1008800000280240F948006840F00100F74908607C
:100890000020F64908310860F4480068F44908402F
:1008A000F2490860F348091D0860F348EF498431B4
:1008B0000860F0481038091D0860EC48006820F412
:1008C0008020EA4908600020E8490C310860E749C7
:1008D0008C31086070470021E44A921C1170114667
:1008E0000870704710B501460022002300204A110D
:1008F000012A02D1DD4C236808E0022A03D1DB4C37
:100900007034236802E0D94C7434236801F01F026C
:10091000012494401C400CB1012000E0002010BDD7
:1009200038B5002000900024002500BF3120FFF7DB
:10093000D9FF05460098401C00900098B0F5A04FE4
:1009400001D0002DF2D03120FFF7CCFF08B10124F7
:1009500000E00024204638BD01460020C34A10684C
:1009600020F0F80040EAC10010607047C3490860F9
:1009700070470021BD4A703211701170012802D0F9
:1009800004280AD104E00121B84A7032117005E050
:100990000521B64A7032117000E000BF00BF7047F9
:1009A000B7490860704770B5049C41EA821501267A
:1009B000C6EB530645EA0645054345EA0465AB4EDA
:1009C000361D356070BDAD4908667047820142EA48
:1009D0000172A64B84331A607047A8498866704735
:1009E00010B5830143EA016343EA02739F4C8834E4
:1009F000236010BDA14908677047A049C8647047CB
:100A000002460020994B0833186820F0EC6042EA57
:100A100001031843954B08331860704702460020C5
:100A2000924B0833186820F0784042EA01031843DB
:100A30008E4B083318607047014600208B4A0832FD
:100A4000106820F0030008431060704787480830A2
:100A5000006800F00C00704701460020834A08320D
:100A6000106820F0F0000843106070470146002035
:100A70007E4A0832106820F4E05008431060704746
:100A800001460020794A0832106820F4604040EAAC
:100A9000C10010607047F0B500210022002402253B
:100AA00000260223714F08373F6807F00C0121B17F
:100AB000042905D0082937D105E0724F076036E0D8
:100AC000714F076033E0694F3F1D3F68C7F38056A1
:100AD000664F3F1D3F6807F03F036EB16A4FB7FB9B
:100AE000F3F7DFF888C10CF1040CDCF800C0CCF39C
:100AF000881C07FB0CF40CE0624FB7FBF3F7DFF840
:100B00006CC10CF1040CDCF800C0CCF3881C07FBB2
:100B10000CF4564F3F1D3F68C7F301477F1C7D0013
:100B2000B4FBF5F7076002E0564F076000BF00BF57
:100B30004E4F08373F6807F0F0010909534F7A5CC0
:100B40000768D7404760494F08373F6807F4E051CE
:100B5000890A4E4F7A5C4768D7408760434F083711
:100B60003F6807F46041490B484F7A5C4768D740BB
:100B7000C760F0BD002100F44072B2F5407F0AD199
:100B80003A4A0832116821F4F811414A02401143EF
:100B9000364A08321160354A70321268C0F30B03CE
:100BA0001A43324B70331A60704735494439086034
:100BB00070473349403908607047364908607047CC
:100BC00001460020294A8C32106820F01F004A1E7E
:100BD0001043264A8C321060704701460020234A99
:100BE0008C32106820F4F8504A1E40EA02201F4A56
:100BF0008C3210607047014600201C4A8C3210680D
:100C000020F4401008431060704701460020174A46
:100C10008C32106820F44000084310607047014691
:100C20000020124A8C32106820F4403008431060D3
:100C3000704719490860704739B10C4A3032126860
:100C400002430A4B30331A6006E0084A3032126819
:100C50008243064B30331A607047F9B1034A34328D
:100C600012680243014B34331A601CE00038024022
:100C7000FFFFF6EA10300024003000200000474259
:100C8000800E47420024F40000127A001400002075
:100C9000FFFCFF0F5C014742E01147428F4A126898
:100CA00082438E4B1A60704739B18C4A121D12680C
:100CB00002438A4B1B1D1A6006E0884A121D126807
:100CC0008243864B1B1D1A60704739B1834A0C3230
:100CD00012680243814B0C331A6006E07F4A0C32E3
:100CE000126882437D4B0C331A60704739B17B4ADE
:100CF000103212680243794B10331A6006E0774ACB
:100D0000103212688243754B10331A60704739B144
:100D1000724A243A12680243704B243B1A6006E080
:100D20006E4A243A126882436C4B243B1A60704727
:100D300039B16A4A203A12680243684B203B1A6074
:100D400006E0664A203A12688243644B203B1A60F0
:100D5000704739B1614A1C3A126802435F4B1C3B31
:100D60001A6006E05D4A1C3A126882435B4B1C3BEA
:100D70001A60704739B1594A143A12680243574B06
:100D8000143B1A6006E0554A143A12688243534BEA
:100D9000143B1A60704739B1504A103A1268024346
:100DA0004E4B103B1A6006E04C4A103A12688243E0
:100DB0004A4B103B1A60704739B1484A1C321268DE
:100DC0000243464B1C331A6006E0444A1C32126848
:100DD0008243424B1C331A60704739B13F4A20327C
:100DE000126802433D4B20331A6006E03B4A203232
:100DF00012688243394B20331A60704739B1374A41
:100E0000243212680243354B24331A6006E0334A19
:100E1000243212688243314B24331A60704739B14F
:100E20002E4A2C32126802432C4B2C331A6006E0F7
:100E30002A4A2C3212688243284B2C331A6070479E
:100E400039B1264A303212680243244B30331A60DB
:100E500006E0224A303212688243204B30331A6057
:100E60007047012808D11D493C31096841F008014B
:100E70001A4A3C32116007E018493C31096821F0F8
:100E80000801164A3C321160704739B1134A273ABB
:100E900012780243114B273B1A7006E00F4A273A9B
:100EA000127882430D4B273B1A7070470B48403035
:100EB000006840F080700949403108607047014681
:100EC0000020064A283A12680A400AB1012000E0D0
:100ED00000207047014926390870704734380240B5
:100EE00010B50446FA48844208D101211020FFF7CA
:100EF00052FF00211020FFF74EFF57E0F5488442D3
:100F000009D101214804FFF735FF00214FF40030DB
:100F1000FFF730FF4AE0F048844209D101218804FC
:100F2000FFF728FF00214FF48020FFF723FF3DE06B
:100F3000EA48844209D10121C804FFF71BFF0021C0
:100F40004FF40020FFF716FF30E0E548844209D156
:100F500001210805FFF70EFF00214FF48010FFF775
:100F600009FF23E0DF48844208D101212020FFF758
:100F700012FF00212020FFF70EFF17E0DA4884421D
:100F800009D101218807FFF7F5FE00214FF08040CD
:100F9000FFF7F0FE0AE0D548844207D10121400561
:100FA000FFF7E8FE00216005FFF7E4FE10BD2DE924
:100FB000FF4705460E460024A14600BFA046B08963
:100FC00000B100BF2C8A24F44054F08804432C82E2
:100FD000AC8941F20C608443B0883189084371893F
:100FE00008430443AC81AC8A24F44074B0890443C0
:100FF000AC826846FFF74FFDB548854202D0B9483C
:10100000854202D1DDF80C9001E0DDF80890A88956
:1010100000F4004040B109EBC90000EB0910316851
:101020004900B0FBF1F707E009EBC90000EB09103C
:1010300031688900B0FBF1F76420B7FBF0F00401E0
:101040002009642101FB1078A88900F4004040B118
:10105000322000EBC800B0FBF1F000F007000443C1
:1010600008E0322000EB08106421B0FBF1F000F042
:101070000F0004432C81BDE8FF874FF41651016037
:1010800000218180C18001810C2141810021818169
:10109000704710B502460020108A20F470600B885B
:1010A0004C8823438C882343CC88234318431082E5
:1010B00010BD0021018041808180C180704721B135
:1010C000828942F40052828104E082894DF6FF73E6
:1010D0001A4082817047028B02F47F420283028BA6
:1010E0000A430283704721B1828942F4004282811F
:1010F00003E08289C2F30E028281704721B1828AA5
:1011000042F40062828204E0828A4FF2FF731A4046
:1011100082827047C1F30802828070470146888846
:10112000C0F308007047028A4FF6F0731A4002823B
:10113000028A0A430282704721B1828942F0020288
:10114000828104E082894FF6FD731A4082817047E4
:1011500082894FF2FF731A40828182890A43828119
:101160007047028A4FF6DF731A400282028A0A43EE
:101170000282704721B1028A42F48042028204E076
:10118000028A4BF6FF731A4002827047818941F050
:1011900001018181704721B1828A42F00802828276
:1011A00004E0828A4FF6F7731A4082827047028BFE
:1011B000D2B20283028B42EA01220283704721B13C
:1011C000828A42F02002828204E0828A4FF6DF7334
:1011D0001A408282704721B1828A42F010028282D4
:1011E00004E0828A4FF6EF731A4082827047828A47
:1011F0004FF6FB731A408282828A0A4382827047CA
:1012000021B1828A42F00202828204E0828A4FF691
:10121000FD731A40828270471AB1838A0B4383821E
:1012200002E0838A8B4383827047F0B50346002433
:1012300000260025002040F66A17B94200D100BF01
:101240001846C1F3421401F01F06012707FA06F5FC
:10125000012C01D10C3004E0022C01D1103000E04F
:1012600014301AB107682F43076002E00768AF43E4
:101270000760F0BD02460020B1F5007F00D100BF3D
:1012800013880B400BB1012000E00020704701F4EF
:101290000072B2F5007F00D100BFCA4302807047E0
:1012A00070B50246002400230025002040F66A168F
:1012B000B14200D100BFC1F3421501F01F03012666
:1012C00006FA03F3012D13D19689334017E000008D
:1012D000001001400044004000480040004C004025
:1012E000005000400014014000780040007C0040A5
:1012F000022D02D1168A334001E0968A33400C1247
:10130000012606FA04F41688344013B10CB101200A
:1013100000E0002070BD10B50022002340F66A14E2
:10132000A14200D100BF0A1201249440A3B2DC43C1
:10133000048010BD10B504466FF00400FFF73AF9C1
:10134000E11704EB5171C1F3C701234A1170104634
:10135000007800EB4001C1EBC0104FF6FF7101EACD
:10136000C0001E49088010BD01461B4A12784A433E
:101370004FF0E0235A6100229A6101221A6100BFF6
:101380004FF0E022106900F001021AB100F480323F
:10139000002AF5D000224FF0E0231A619A617047CD
:1013A00001460E4A12884A434FF0E0235A61002258
:1013B0009A6101221A6100BF4FF0E022106900F02B
:1013C00001021AB100F48032002AF5D000224FF059
:1013D000E0231A619A617047240000202600002053
:1013E0000EB502AA0A213C2000F0A7FA01AA0B219F
:1013F0003C2000F0A2FA6A460C213C2000F09DFA45
:101400009DF80800482807D19DF80400342803D12E
:101410009DF80000332801D000200EBD702200216D
:101420003C2000F069FA0520FFF7BAFF20220121D5
:101430003C2000F061FA0520FFF7B2FF00220221F4
:101440003C2000F059FA0520FFF7AAFF0120E4E74D
:1014500010B5204A03213C2000F06FFA1D4A521CAF
:1014600004213C2000F069FA1A4A921C05213C2014
:1014700000F063FA174AD21C06213C2000F05DFA06
:10148000144A121D07213C2000F057FA114A521D40
:1014900008213C2000F051FA10BD0E4840780D495B
:1014A000097840EA012000B20B4908800948C07859
:1014B0000849897840EA012000B207498880054838
:1014C00040790449097940EA012000B20249488084
:1014D00070470000280000202E00002008B56A4652
:1014E0007521D02000F029FA9DF80000682801D06D
:1014F000002008BD00226B21D02000F0FDF905205E
:10150000FFF74EFF00221921D02000F0F5F9052049
:10151000FFF746FF03221A21D02000F0EDF9052045
:10152000FFF73EFF18221B21D02000F0E5F905202F
:10153000FFF736FF10221C21D02000F0DDF9052036
:10154000FFF72EFF40226A21D02000F0D5F90520B8
:10155000FFF726FF42223721D02000F0CDF90520E9
:10156000FFF71EFF0120C4E710B53F4A3B21D02002
:1015700000F0E3F93C4A521C3C21D02000F0DDF998
:10158000394A921C3D21D02000F0D7F9364AD21CAE
:101590003E21D02000F0D1F9334A121D3F21D02046
:1015A00000F0CBF9304A521D4021D02000F0C5F99F
:1015B0002D4A08324321D02000F0BFF92A4A0932CF
:1015C0004421D02000F0B9F9274A0A324521D02021
:1015D00000F0B3F9244A0B324621D02000F0ADF9D7
:1015E000214A0C324721D02000F0A7F91E4A0D32C3
:1015F0004821D02000F0A1F910BD1B4840781A49BD
:10160000097840EA012000B2184908801648C078DD
:101610001549897840EA012000B2144948801248EF
:1016200040791149097940EA012000B20F498880C8
:101630000D48407A0C49097A40EA012000B20C4971
:1016400008800948C07A0849897A40EA012000B236
:10165000074948800448407B0349097B40EA012050
:1016600000B20349888070478800002034000020C1
:101670003A0000201CB501210220FFF7DDFA4FF4EB
:101680004070009001208DF804008DF806000320C2
:101690008DF8050000208DF807006946EE48FFF739
:1016A0002DF81CBD10B54FF40070EB4918310880BF
:1016B000401008800120FFF757FEE748103000680F
:1016C00008B9012000E0002000F4007008B10020FB
:1016D00010BD4FF40070E0491A3108800120FFF777
:1016E00043FEDD481030006800F4007008B10020AF
:1016F000EEE74FF40070D8491A3108800120FFF757
:1017000033FE0120E4E710B54FF48070D2491A315E
:1017100008800120FFF728FE4FF40070CE491A31EF
:1017200008800120FFF720FE4FF48070CA4918316D
:1017300008800120FFF718FE4FF40070C6491831E9
:1017400008800120FFF710FE10BD10B54FF4807027
:10175000C1491A3108800120FFF706FE4FF40070DE
:10176000BD491A3108800120FFF7FEFD4FF480705B
:10177000B949183108800120FFF7F6FD4FF4807059
:10178000B5491A3108800120FFF7EEFD10BD10B5F4
:101790004FF48070B0491A3108800120FFF7E4FD52
:1017A0004FF40070AC49183108800120FFF7DCFDD0
:1017B0004FF48070A849183108800120FFF7D4FD4C
:1017C0004FF48070A4491A3108800120FFF7CCFD46
:1017D00010BD10B54FF480709F491A310880012068
:1017E000FFF7C2FD4FF400709B49183108800120BB
:1017F000FFF7BAFD4FF48070974918310880012037
:10180000FFF7B2FD94481030006800F4007048B152
:101810004FF4807090491A3108800120FFF7A4FD31
:10182000002010BD4FF480708B491A3108800120D0
:10183000FFF79AFD0120F4E770B50446082522E081
:101840004FF4807084491A3108800120FFF78CFD25
:1018500004F0800028B14FF400707F4918310880EF
:1018600004E04FF400707C491A3108806006040ED1
:101870000120FFF779FD4FF4807077491831088017
:101880000120FFF771FD2800A5F10101CDB2D7D1EC
:101890004FF4807070491A31088070BD70B508250A
:1018A0000024A8016C491831088019E06006040E74
:1018B0004FF4807068491A3108800120FFF754FD09
:1018C0004FF480706449183108800120FFF74CFD07
:1018D00061481030006800F4007008B144F0010461
:1018E0002800A5F10101CDB2E0D14FF480705A4932
:1018F0001A310880204670BD70B504460D46164664
:10190000FFF7D0FE08B9002070BDE0B2FFF794FFEA
:10191000FFF75FFF18B9FFF7F6FE0020F4E728464F
:10192000FFF78AFFFFF755FF3046FFF785FFFFF708
:1019300050FFFFF7E8FE0120E6E770B504460D46CC
:101940001646FFF7AFFE08B9002070BDE0B2FFF702
:1019500073FFFFF73EFF18B9FFF7D5FE0020F4E74D
:101960002846FFF769FFFFF734FFFFF79BFE611C76
:10197000C8B2FFF761FFFFF72CFFFFF78FFF307052
:10198000FFF705FFFFF7BFFE0120DEE72DE9F0417D
:1019900004460E4617461D46FFF784FE10B9002088
:1019A000BDE8F081E0B2FFF747FFFFF712FF18B97B
:1019B000FFF7A9FE0020F3E73046FFF73DFFFFF7F2
:1019C00008FF05E015F8010BFFF736FFFFF701FFF1
:1019D0003800A7F10101CFB2F4D1FFF794FE012046
:1019E000DEE72DE9F04104460F4615461E46FFF797
:1019F00059FE10B90020BDE8F081E0B2FFF71CFFEE
:101A0000FFF7E7FE18B9FFF77EFE0020F3E7384640
:101A1000FFF712FFFFF7DDFEFFF744FE611CC8B2BF
:101A2000FFF70AFFFFF7D5FE0FE0012D05D1FFF705
:101A300035FF3070FFF7ABFE04E0FFF72FFF30708B
:101A4000FFF783FE761C681EC5B2002DEDD1FFF7AF
:101A50005AFE0120CFE700000004024010B588B014
:101A6000044601210846FFF7E7F801211020FFF79F
:101A70003DF9072209215848FEF7CBFE07220A212B
:101A80005548FEF7C6FE4FF4C060069002208DF860
:101A90001C008DF81D0000208DF81E0001208DF81F
:101AA0001F0006A94C48FEF729FE02940020ADF85D
:101AB0000C00ADF80E00ADF81000ADF814000C20CD
:101AC000ADF8120002A94548FFF771FA25208DF8FC
:101AD000040002208DF8050000208DF8060001208A
:101AE0008DF8070001A8FEF718FD012240F22551EC
:101AF0003A48FFF79AFB002240F227713748FFF778
:101B000094FB01213548FFF7DAFA40F22771334898
:101B1000FFF701FC40F225513048FFF7FCFB08B00D
:101B200010BD10B540F225512C48FFF7B9FB58B154
:101B30002A488088C4B221462848FFF7EBFA40F2D1
:101B400025512648FFF7E7FB40F227712348FFF7AE
:101B5000A7FB30B3224801780078401C204A10705F
:101B60002048405C1D49888000BF40211B48FFF78A
:101B700081FB0028F9D040F227711848FFF7CBFB12
:101B8000174800781849097888420ADB002240F299
:101B900027711248FFF749FB0020134908701049CC
:101BA000087010BD70B505460E4600240AE0295D98
:101BB0000D4802780078401C0B4B1870094881547E
:101BC000601CC4B2B442F2DB012240F22771034828
:101BD000FFF72BFB70BD0000000002400010014029
:101BE0004000002096000020410000202DE9F84F21
:101BF00005460E4617469846DDE90AAB002400204C
:101C00000090AA222146641C744842542146641C58
:101C1000425402222146641C425400222146641C84
:101C20004254C5F307222146641C42542146641CD9
:101C30004554C6F307222146641C42542046611CC9
:101C4000CCB266490E54C7F307222046611CCCB2C1
:101C500062490A542046611CCCB260490F54C8F353
:101C600007222046611CCCB25C490A542046611C04
:101C7000CCB25A4901F80080CAF307222046611C01
:101C8000CCB256490A542046611CCCB2534901F8E3
:101C900000A0CBF307222046611CCCB24F490A5466
:101CA0002046611CCCB24D4901F800B00C98C0F33D
:101CB00007222046611CCCB248490A540C98C2B293
:101CC0002046611CCCB245490A540D98C0F3072246
:101CD0002046611CCCB241490A540D98C2B220463C
:101CE000611CCCB23D490A540E98C0F3072220462D
:101CF000611CCCB239490A540E98C2B22046611C0C
:101D0000CCB236490A54201FC8704FF000090AE0CF
:101D1000324810F8091000980844C0B2009009F148
:101D2000010000F0FF09A145F2DB2146621CD4B29C
:101D30002A4A0098505421461046FFF733FFBDE869
:101D4000F88F2DE9F04105460E460024A046AA2250
:101D50002146641C214842542146641C42540722F7
:101D60002146641C425400222146641C42542A0E1F
:101D70002146641C4254C5F307422146641C425468
:101D8000C5F307222146641C42542046611CCCB294
:101D900012490D54320A2046611CCCB20F490A5434
:101DA0002046611CCCB20D490E54201FC87000277C
:101DB00006E00A48C05D404400F0FF08781CC7B246
:101DC000A742F6DB2046611CCCB2044901F8008032
:101DD00021460248FFF7E6FEBDE8F081C80000207A
:101DE0001CB501211020FEF727FF60200090012084
:101DF0008DF8040000208DF8060003208DF8050002
:101E000001208DF8070069460548FEF777FC202180
:101E10000348FEF7EFFC40210148FEF7EBFC1CBD38
:101E20000010024010B5FFF73DFCEE20FFF704FD67
:101E3000FFF7CFFC1E20FFF7FFFCFFF7CAFCFFF700
:101E400062FC10BD38B5002413E0A02000EB440074
:101E5000C1B26B460222EE20FFF7C3FD9DF80100E0
:101E60009DF8001040EA0120FE4921F81400601C92
:101E7000C4B2062CE9DD38BD10B50446FFF712FCEC
:101E8000EE20FFF7D9FCFFF7A4FC2046FFF7D4FCB7
:101E9000FFF79FFCFFF737FC0A20FFF781FA10BD20
:101EA00038B5FFF7FFFBEE20FFF7C6FCFFF791FC0C
:101EB0000020FFF7C1FCFFF78CFCFFF7F3FBEF20DE
:101EC000FFF7BAFCFFF785FCFFF7E8FC8DF8000090
:101ED000FFF73BFCFFF7E2FC8DF80100FFF735FC54
:101EE000FFF7DCFC8DF80200FFF751FCFFF70BFC5D
:101EF0009DF8000000049DF8011040EA01209DF8C3
:101F0000021040EA0104204638BD70B52DED068B65
:101F100005462846FFF7B0FFFFF7C2FF0446D14948
:101F20004989A4EB012000F0E2FCCF4A03C2CD496D
:101F3000888900F0DCFC41EC1A0BCB4890ED000BDB
:101F400053EC102B51EC1A0B00F020FD41EC190B57
:101F50009FEDC60B53EC102B00F014FB41EC180B5B
:101F60009FEDC40B53EC102B00F058FAC34A03C288
:101F7000BDEC068B70BD70B52DED0A8B0446204676
:101F8000FFF77AFFFFF78CFF0546B649088900F096
:101F9000AEFC41EC1B0BB44890ED000B53EC102B46
:101FA00051EC1B0B00F0F2FC41EC1A0B9FEDB40B53
:101FB00053EC102B00F0E6FA41EC180BA949898884
:101FC000080400F094FC41EC190B53EC182B00F0C2
:101FD00025FAAD4A03C2A349C88800F088FC41EC49
:101FE0001B0BA14890ED000B53EC102B51EC1B0B7D
:101FF00000F0CCFC41EC1A0B9FEDA40B53EC102B22
:1020000000F0C0FA41EC180B96494988C80300F06B
:102010006EFC41EC190B53EC182B00F0FFF99D4AB4
:1020200003C29FED940B53EC102B944890ED000BE2
:1020300051EC100B00F06EFC7ED28B4890ED000B43
:1020400053EC102B90ED000B51EC100B00F09EFCAC
:1020500041EC180B9FED900B53EC102B00F092FA13
:102060008F4A03C29FED830B53EC102B834890EDF6
:10207000000B51EC100B00F087FD41EC190B9FEDAC
:102080007D0B53EC102B7D4890ED000B51EC100BA9
:1020900000F07AFD41EC1B0B9FED820B53EC102BF3
:1020A00000F074FC41EC1A0B53EC192B00F06EFCA1
:1020B00041EC180B9FED7D0B53EC102B00F062FAF6
:1020C0007C4A03C29FED6B0B53EC102B6B4890EDD9
:1020D000000B51EC100B00F057FD41EC190B9FED7C
:1020E000650B53EC102B654890ED000B51EC100B79
:1020F00000F04AFD41EC1B0B9FED6A0B53EC102BDB
:1021000000F044FC41EC1A0B53EC192B00F03EFCA0
:1021100041EC180B9FED680B53EC102B00F032FADA
:10212000674A03C29FED670B53EC102B534890EDA9
:10213000000B51EC100B00E071E000F0EBFB7DD2E6
:102140009FED620B53EC102B4C4890ED000B51ECC3
:10215000100B00F063F941EC190B9FED5C0B53EC95
:10216000102B464890ED000B51EC100B00F056F987
:1021700041EC1B0B9FED570B53EC102B00F006FCB2
:1021800041EC1A0B53EC192B00F000FC41EC180B3E
:10219000484890ED000B53EC102B51EC180B00F05D
:1021A0003DF9444A03C29FED490B53EC102B3348D1
:1021B00090ED000B51EC100B00F030F941EC1A0BD4
:1021C0009FED420B53EC102B2C4890ED000B51EC83
:1021D000100B00F023F941EC1C0B9FED400B53EC6E
:1021E000102B00F0D3FB41EC1B0B53EC1A2B00F02F
:1021F000CDFB41EC190B9FED2D0B53EC102B00F098
:10220000C1F941EC180B234890ED000B53EC102B57
:1022100051EC180B00F002F9294A03C20EE09FEDC1
:10222000310B1F4880ED000B9FED2E0B214880EDF8
:10223000000B9FED2C0B224880ED000B184890ED11
:10224000000B53EC102B0D4890ED000B51EC100BD4
:1022500000F09AFC094A03C2164890ED000B53ECBB
:10226000102B43E0FA00002048000020000000008E
:10227000000060410000000000409F40500000202E
:102280000000000000006040680000200000000026
:102290000000704070000020000000000000E041DD
:1022A0005800002000000000000014400000000062
:1022B00000000040780000200000000000001040F6
:1022C0008000002000000000007097C000000000A7
:1022D000007097400000000000001C40000000005B
:1022E000000026400000000000000000264890ED9D
:1022F000000B51EC100B00F047FC234A03C22348AB
:1023000090ED000B53EC102B214890ED000B51EC9D
:10231000100B00F039FC1E4A03C2284600F0E7FA11
:1023200041EC1B0B1A4890ED000B53EC102B51ECB9
:102330001B0B00F02BFB41EC180B9FED160B53EC25
:10234000102B00F01FF941EC1A0B0F4890ED000B19
:1023500053EC102B51EC1A0B00F016FC41EC190B4E
:102360009FED0E0B53EC102B00F00CF90D4A03C23D
:10237000BDEC0A8B70BD10B5FFF754FD0520FFF7CB
:102380000FF8FFF75FFD10BD6800002080000020FF
:10239000700000200000000000004041000000002C
:1023A0000000E040600000207047704770477546AD
:1023B00000F028F8AE4605006946534620F00700B5
:1023C000854618B020B5FEF791F8BDE820404FF0E3
:1023D00000064FF000074FF000084FF0000B21F00F
:1023E0000701AC46ACE8C009ACE8C009ACE8C009DC
:1023F000ACE8C0098D4670470446AFF30080204624
:10240000FDF70BFF00487047080100200149182024
:10241000ABBEFEE7260002007047000010B591EA4F
:10242000030F48BF83F0004300F1B683841A71EBB9
:10243000030C05D2121943EB0C03001B61EB0C01DA
:10244000DFF824E14FEA1154A4EB135C1EEA430FBA
:1024500018BF9EEA445F73D023EA0E03DCF1200E1E
:1024600021EA045143F4801332D322FA0CFE10EB1C
:102470000E0023FA0CFE41EB0E01CCF1200E03FA04
:102480000EFE10EB0E0051F10001B1F5801FCCF1F2
:10249000200E32D201EB045112FA0EF2BDE81040C8
:1024A00058BF7047401C38BF5FEA420218BF7047F0
:1024B000002814BF20F0010041F100014FEA410360
:1024C00013F5001F38BF7047A1F1C04100F056BBA3
:1024D000012A43EB0302ACF1200CDCF11F0E32BFEA
:1024E0004FF0000E23FA0CF310EB030041EB045104
:1024F000B4EB115FD0D0A1EB045101F58011490874
:102500005FEA300001EB04510ED350F1000038BFF8
:1025100012FA0EFE08D1BDE81040C9E7401C38BFD2
:102520005FEA4202CAD1C3E7BDE810404FEA410367
:1025300013F5001F38BF7047A1F1C04100F01EBB6A
:102540009EEA445F08D011EA5E0FBDE8104004BF68
:1025500001F0004100207047BDE8104070B500F068
:10256000BFFA00BF64FBBE3E0000E0FF491058BF49
:10257000C1F140415B1058BFC3F140438B42EFF3C0
:10258000008070472DE9C04130B4DFF8A0C23CEABA
:10259000111418BF3CEA131400F0EC8081EA030523
:1025A0001CEA111444EAD57418BF1CEA131500F094
:1025B000C780A4EB05044FF0004545EAC12145EA78
:1025C000C32341EA505143EA525304F17F749942C4
:1025D00004F500344FEAC0204FEAC22208BF9042FF
:1025E00000F09C804FEA13650FF24016765D4FEACB
:1025F000134506FB05F7C7F1807706FB07F74FEA9F
:10260000D737A7FB03687642C8F58038A7FB06CE0C
:1026100038BFA8F1010807FB08E64FF0000EA6FB43
:10262000028CE6FB03CEDCF1000CCEF1004E38BF8D
:10263000AEF1010EA6FB0C584FF000074FF000055D
:10264000E6FB0E87A1FB08C6A0FB07CE16EB0E0625
:1026500045F10005E1FB076515F1E04E7EBFA4F5ED
:1026600080345FEA46066D4116F1800745F10005AA
:102670004FEA17274FEA066647EA0567A6F1DE46E6
:10268000B6F1805F4FEA15251FD9384624F0010CBA
:1026900005EBC471BCF1FE6F01EB0C1102D8F0BC6C
:1026A000BDE8008124425CBF01F5801E9EEAC47F24
:1026B00002D4F0BCBDE80081244238D4F0BCA1F1C2
:1026C000C041BDE8004100F059BA4FEAD22242EAC7
:1026D00043524FEAD323A7FB02864FEAD02040EAB9
:1026E000415007FB03661EEA0E0F4FEAD12105FB9E
:1026F000026658BFA6EB0056B6EB00564FEA520EE4
:102700004EEAC37E18EB0E0E56EB530EBDD518EBFA
:1027100002085E417F1C55F10005B6E74FF48015B5
:102720004FF000074FF000064FF00008ADE7F0BC97
:102730004FF0000001F1C04101F00041BDE800810F
:1027400011EA0C1F0CEA131500D00CE013EA0C1F61
:1027500000F025804FF00000F0BC81EA030101F099
:102760000041BDE80081F0BC81EA0301BDE8004101
:1027700000F004BAF0BCBDE8004170B500F0B0F95B
:10278000097EFC3E00F007B881EA03014FF000002B
:1027900001F00041704781EA030100F0EFB9F0BC9D
:1027A0004FF000002249BDE800417047FFFDFBF9F2
:1027B000F7F5F4F2F0EEEDEBE9E8E6E4E3E1E0DE74
:1027C000DDDBDAD8D7D5D4D3D1D0CFCDCCCBCAC8E6
:1027D000C7C6C5C4C2C1C0BFBEBDBCBBBAB9B8B70D
:1027E000B6B5B4B3B2B1B0AFAEADACABAAA9A8A800
:1027F000A7A6A5A4A3A3A2A1A09F9F9E9D9C9C9BCE
:102800009A99999897979695959493939291919078
:102810008F8F8E8E8D8C8C8B8B8A89898888878709
:102820008685858484838382828181800000FF077E
:102830000000F87F4FEA41034FEA5353A3F580634A
:10284000D3F11E03C8BFD3F1210C0CDD4FF00042C1
:1028500042EAC12242EA505232FA03FC8CEAE17C9D
:10286000ACEBE1707047102BC4BF0020704703F53C
:10287000787CBCF1FF3F04D06FF0004282EA210077
:10288000704770B500F02CF9499224800020704701
:10289000F2E700004FEA1153A3F58063D3F11E0362
:1028A000A8BFD3F1200C08DB4FF0004242EAC1225E
:1028B00052EA505232FA03F0704709420BD4102BFF
:1028C000C4BF0020704703F5787CBCF1FF3F05D002
:1028D0004FF0FF3070474FF00000704770B500F0C8
:1028E000FFF800BF4992248000207047F0E7B0FA5B
:1028F00080F310FA03F10AD0C3F11D0303F58063DE
:102900004FEA41504FEA035202EBD12170474FF09A
:102910000000704751EA030C17D41CF5801F58BF04
:10292000BCF5801F00F10680994218BF704708BFB0
:102930009042704707D711F5801F58BF13F5801FCD
:1029400019D499427047894270471CF5801F08D5F9
:10295000BCF5801FF7D58B4218BF704708BF824275
:1029600070474FF4001C1CEB410F38BF1CEB430FAA
:1029700001D28B42704770B500F0B2F89224490042
:102980004FF000514FF08053FFF7F0BDDFF848C122
:1029900070B51CEA111E1EBF1CEA13159EEA0C0F2F
:1029A00095EA0C0F00F06F8081EA030423EA4C13D0
:1029B0004EEAD47E21EA4C1141F4801143F4801395
:1029C000AE44A1FB024CA0FB0365AEF17F7E36193D
:1029D00055EB0C05A1FB034C4CF10003A0FB021CC2
:1029E00016EB0C06654153F10003094218BF46F08F
:1029F000010613F4007F0BD14FEA03314FEA053093
:102A0000340341EA155140EA16506FF003020AE020
:102A10004FEAC3214FEAC520F40241EA555140EA8A
:102A200056506FF0020202EB2E4201EB025585EA8E
:102A3000CE710AD05FEA440C18BF24F0004450F174
:102A4000000041F1000120EAD47040F2FE7C6245B2
:102A500000D270BDA84214BF4FF080444FF04044F4
:102A6000002E08BF0024BEF1806FA8BFA1F1C041B5
:102A7000BDE8704080F282804FF0000001F1C0415B
:102A800001F0004170479EEA0C0F0CEA131518BFC5
:102A900095EA0C0F06D04FF0000081EA030E0EF00D
:102AA000004170BD00F01CF88900013E00F007B83D
:102AB00000F009B84FEA430C5FEA5C5C08D081EA99
:102AC000030100F05BB84FEA410C5FEA5C5CF6D1B1
:102AD0004FF00000014970470000FF070000F87F39
:102AE0000EF1020E2EF0030E5EF8046B364205D492
:102AF000012A43EB030515F5001F12D8012841EB0D
:102B0000010C1CF5001F0CD80ED14FEAD17C15F535
:102B1000001F0CEB4C0C0CF1020C08BF4CEBD37CEF
:102B200004E04FF0080C01E04FEAD37C0CEB4C05BD
:102B300026FA05F606F00706B6F1040C06D20EEBEF
:102B4000860CBDE870404CF0010C6047DFE80CF0EB
:102B5000090B02024FF000414FF00000A1F50021E7
:102B600070BD19461046012851EB010418BFD4F579
:102B7000001484BF002001F0004170BD0808A0F5DA
:102B800000114FEA3101704710B591EA030F48BFB9
:102B900083F000433FF54AAC841A71EB030C07D273
:102BA00012198CF0004C43EB0C03001B61EB0C0181
:102BB000DFF8A4E14FEA1154A4EB135C1EEA430FC3
:102BC00018BF9EEA445F00F0B08023EA6E035242D1
:102BD00021EA0451C3EB6E0338BF5B1EDCF1200E0B
:102BE00025D322FA0CFE10EB0E0043FA0CFE41EB4B
:102BF0000E01CCF1200E03FA0EFE10EB0E0051F187
:102C00000001CCF1200E29D412FA0EF201EB04518E
:102C1000BDE8104058BF7047401C1CBFB2F1004FC8
:102C2000704700280CBF491C20F00100704712EBD0
:102C3000020E43EB030218BF4FF0010E4EEA4202B0
:102C4000ACF1200CDCF11E0E54D943FA0CFE10EB53
:102C50000E0051F1FF31CCF11E0ED5D50EF1010E53
:102C600012FA0EFE404141EB010101EB445C5FEAC8
:102C70005C5C10D910EBDE7001EB045138BFBEF183
:102C8000004FBDE8104018BF704700280CBF491C1A
:102C900020F00100704730D24FEAD42C11F500111A
:102CA00024F400641BD0B1FA81F20B3AA41AA41EDA
:102CB000D2F12003914030FA03F31943904001EB25
:102CC000CC71002C01EB0451BDE81040A8BF704747
:102CD00001F1C0414FF0000001F000417047B0FA2F
:102CE00080F310FA03F100D110BDE41A173C480537
:102CF000C90AE4E701EB045110BD491001EB04518E
:102D0000BDE810404FEA300002E04FF0000170478C
:102D10004A0008BF0042F8D0B2F5001F28BF704734
:102D200001F000414FF0000070479EEA445F07D079
:102D300011EA5E0FBDE8104004BF0021002070477B
:102D4000BDE8104070B5FFF7CBFE00BF40DFF63E98
:102D500083F00041104670470000E0FF4FF04070E4
:102D6000E1EE100A70470000882D000800000020E6
:102D700088000000C4010008102E00088800002010
:102D8000E0060000E0010008007A030A00000000ED
:102D9000000000000102030406070809000000000B
:102DA00001020304010203040607080900000000F1
:102DB0000000000000000000000000000000000013
:102DC0000000000000000000000000000000000003
:102DD00000000000000000000000000000000000F3
:102DE00000000000000000000000000000000000E3
:102DF00000000000000000000000000000000000D3
:102E000000000000000000000000000000000000C2
:040000050800018965
:00000001FF
