:020000040800F2
:1000000098070020690500083D0300083F03000829
:1000100043030008470300084B03000800000000EA
:100020000000000000000000000000004F03000876
:1000300051030008000000005303000855030008A6
:100040008305000883050008830500088305000870
:100050008305000883050008830500088305000860
:100060008305000883050008830500088305000850
:100070008305000883050008830500088305000840
:100080008305000883050008830500088305000830
:100090008305000883050008830500088305000820
:1000A0008305000883050008830500088305000810
:1000B0008305000883050008830500088305000800
:1000C00083050008830500088305000883050008F0
:1000D00083050008F71B0008830500088305000856
:1000E00083050008830500088305000883050008D0
:1000F00083050008830500088305000883050008C0
:1001000083050008830500088305000883050008AF
:10011000830500088305000883050008830500089F
:10012000830500088305000883050008830500088F
:10013000830500088305000883050008830500087F
:10014000830500088305000883050008830500086F
:10015000830500088305000883050008830500085F
:10016000830500088305000883050008830500084F
:10017000830500088305000883050008830500083F
:10018000830500088305000800F002F800F03CF841
:100190000AA090E8000C82448344AAF10107DA45E2
:1001A00001D100F031F8AFF2090EBAE80F0013F0F8
:1001B000010F18BFFB1A43F001031847CC5400008D
:1001C000EC540000103A24BF78C878C1FAD852071E
:1001D00024BF30C830C144BF04680C6070470000C1
:1001E0000023002400250026103A28BF78C1FBD840
:1001F000520728BF30C148BF0B6070471FB505F0DC
:1002000030F91FBD10B510BD03F098F91146FFF786
:10021000F5FF00F009F803F0B6F903B4FFF7F2FFB9
:1002200003BC03F0B7F90000A82001F0CFF8314873
:1002300001F07EFC01F0F4FE01F086FA00BF01F04F
:1002400099F90128FBD100BF01F016F90128FBD173
:1002500001F045FF4CE001F0D3F901F01AFA01F08A
:1002600043F901F066F9244BB3F90420B3F9021005
:10027000B3F9000003F066F8204890ED001A20481A
:10028000D0ED000A1F4890ED000A03F07DF801F060
:10029000E9FE1D4890ED004A1C48D0ED003A1C488C
:1002A00090ED003A1B48D0ED002A1B4890ED002A43
:1002B0001A48D0ED001A1A4890ED001A1948D0EDEE
:1002C000000A194890ED000A02F04AFB002211468C
:1002D0001046164B93ED001A154BD3ED000A154B43
:1002E00093ED000A01F0E4FD4021134800F0D0FA3C
:1002F000B1E7000020A107003A0000207C000020A8
:1003000078000020740000206400002060000020BD
:100310005C00002088000020840000208000002075
:1003200058000020540000205000002070000020E1
:100330006C0000206800002000100240704700BFE1
:10034000FEE700BFFEE700BFFEE700BFFEE7704725
:1003500070477047704700000CB500200190009076
:100360007648006840F480307449086000BF7348E4
:10037000006800F4003000900198401C0190009843
:1003800018B90198B0F5A04FF1D16C48006800F49D
:10039000003010B10120009001E000200090009892
:1003A000012846D165484030006840F080506349DC
:1003B000403108606248006840F44040604908608D
:1003C0005E48083000685D490831086008460068EA
:1003D00040F4004008600846006840F4A0500860FF
:1003E0005848091F0860081F006840F08070091F06
:1003F000086000BF5148006800F000700028F9D084
:1004000040F20570504908604C480830006820F000
:1004100003004A49083108600846006840F00200BD
:10042000086000BF45480830006800F00C0008284C
:10043000F8D10CBD10B54548006840F47000434940
:1004400008603E48006840F001003C490860002018
:100450003A4908310860394800683D490840374941
:1004600008603C48091D0860081F006820F48020CF
:10047000091F0860002031490C310860FFF76CFF4C
:100480004FF0006031498039086010BD70B5002020
:100490000022022300240221284D08352D6805F092
:1004A0000C0020B1042806D0082834D107E02A4DDA
:1004B0002A4E356033E02A4D284E35602FE01F4D1F
:1004C0002D1D2D68C5F380541C4D2D1D2D6805F084
:1004D0003F0154B1224DB5FBF1F5184E361D36687B
:1004E000C6F3881605FB06F209E01B4DB5FBF1F5D6
:1004F000124E361D3668C6F3881605FB06F20F4D00
:100500002D1D2D68C5F301456D1C6B00B2FBF3F585
:10051000124E356003E0104D104E356000BF00BF35
:10052000064D08352D68C5F303150E4E705D0B4D55
:100530002D68C540094E356070BD0000003802408E
:100540000070004008544007003C024088ED00E085
:10055000FFFFF6FE103000240024F400000000200D
:1005600000127A000400002009488047094800472B
:10057000FEE7FEE7FEE7FEE7FEE7FEE7FEE7FEE753
:10058000FEE7FEE704480549054A064B70470000B0
:100590003504000889010008980100209807002010
:1005A000980300209803002032490143324A116029
:1005B000704770B5002100230F22C4781CB32E4C65
:1005C000246804F4E064C4F5E064C4F30721C1F1D5
:1005D0000404E3B20A4144789C40E1B284781440B8
:1005E00021430C07210E254C05786155047804F051
:1005F0001F050124AC4005786D11AD0005F1E02523
:10060000C5F8004109E0047804F01F050124AC405E
:100610001B4D0678761145F8264070BD194A0A40F0
:100620000243154B1B1F1A60704739B1124A121D45
:1006300012680243104B1B1D1A6006E00E4A121D81
:10064000126882430C4B1B1D1A607047042808D1A6
:100650004FF0E021096941F004014FF0E0221161FF
:1006600007E04FF0E021096921F004014FF0E0229A
:10067000116170470000FA050CED00E000E400E0B5
:1006800080E100E080FFFF1F10B5044698488442D7
:1006900008D10121084600F086FB0021012000F06E
:1006A00082FB76E09348844208D10121022000F0C9
:1006B0007AFB0021022000F076FB6AE08E4884423B
:1006C00008D10121042000F06EFB0021042000F07D
:1006D0006AFB5EE08948844208D10121082000F0CD
:1006E00062FB0021082000F05EFB52E08448844257
:1006F00008D10121102000F056FB0021102000F04D
:1007000052FB46E07F48844208D10121202000F0BE
:100710004AFB0021202000F046FB3AE07A48844260
:1007200008D10121402000F03EFB0021402000F0D4
:100730003AFB2EE07548844208D10121802000F068
:1007400032FB0021802000F02EFB22E07048844222
:1007500008D10121801500F026FB0021A01500F032
:1007600022FB16E06B48844208D10121401500F0BD
:100770001AFB0021601500F016FB0AE0664884426F
:1007800007D10121001500F00EFB0021201500F01B
:100790000AFB10BDF0B50A4600210023002400BF6B
:1007A0003DE0012505FA01F3156805EA03049C42C2
:1007B00034D105684F000326BE40B5430560157966
:1007C0004E00B5400668354305601579012D02D00D
:1007D0001579022D16D185684F000326BE40B5431A
:1007E000856055794E00B54086683543856045681B
:1007F00001268E40B5434560456896798E40B6B275
:1008000035434560C5684F000326BE40B543C5600B
:10081000D5794E00B540C6683543C560491C1029DE
:10082000BFD3F0BD4FF6FF7101600021017141712E
:100830008171C171704708B54FF480320092009AFF
:100840000A430092009AC261C161009AC261C26902
:100850000092C269009208BD0246002013690B4055
:100860000BB1012000E0002070470146086980B20A
:1008700070470246002053690B400BB1012000E095
:10088000002070470146486980B270470183704775
:10089000418370470AB1018300E0418370474161A1
:1008A000704742694A4042617047F0B50023002416
:1008B0004D07ED0E02FA05F3CE1000F1200555F8B4
:1008C00026504E07F70E0F26BE40B543CF1000F15D
:1008D000200646F82750CE1000F1200555F8265086
:1008E00045EA0304CE1000F1200545F82640F0BD8E
:1008F000000002400004024000080240000C0240D8
:10090000001002400014024000180240001C024087
:10091000002002400024024000280240F9480068FC
:1009200040F00100F74908600020F64908310860EE
:10093000F4480068F4490840F2490860F348091D8A
:100940000860F348EF4984310860F0481038091D09
:100950000860EC48006820F48020EA490860002024
:10096000E8490C310860E7498C3108607047002184
:10097000E44A921C117011460870704710B5014688
:100980000022002300204A11012A02D1DD4C2368F5
:1009900008E0022A03D1DB4C7034236802E0D94C12
:1009A0007434236801F01F02012494401C400CB1F0
:1009B000012000E0002010BD38B500200090002488
:1009C000002500BF3120FFF7D9FF05460098401CE5
:1009D00000900098B0F5A04F01D0002DF2D031204A
:1009E000FFF7CCFF08B1012400E00024204638BD09
:1009F00001460020C34A106820F0F80040EAC10018
:100A000010607047C349086070470021BD4A7032CA
:100A100011701170012802D004280AD104E00121CC
:100A2000B84A7032117005E00521B64A7032117073
:100A300000E000BF00BF7047B7490860704770B55D
:100A4000049C41EA82150126C6EB530645EA064599
:100A5000054345EA0465AB4E361D356070BDAD49B2
:100A600008667047820142EA0172A64B84331A601D
:100A70007047A8498866704710B5830143EA01634F
:100A800043EA02739F4C8834236010BDA149086774
:100A90007047A049C864704702460020994B08334C
:100AA000186820F0EC6042EA01031843954B0833C4
:100AB0001860704702460020924B0833186820F0F7
:100AC000784042EA010318438E4B083318607047A0
:100AD000014600208B4A0832106820F003000843CA
:100AE0001060704787480830006800F00C007047BD
:100AF00001460020834A0832106820F0F0000843C5
:100B000010607047014600207E4A0832106820F4C9
:100B1000E05008431060704701460020794A0832CF
:100B2000106820F4604040EAC10010607047F0B5E2
:100B3000002100220024022500260223714F0837DD
:100B40003F6807F00C0121B1042905D0082937D1ED
:100B500005E0724F076036E0714F076033E0694F80
:100B60003F1D3F68C7F38056664F3F1D3F6807F043
:100B70003F036EB16A4FB7FBF3F7DFF888C10CF1A2
:100B8000040CDCF800C0CCF3881C07FB0CF40CE070
:100B9000624FB7FBF3F7DFF86CC10CF1040CDCF823
:100BA00000C0CCF3881C07FB0CF4564F3F1D3F6878
:100BB000C7F301477F1C7D00B4FBF5F7076002E037
:100BC000564F076000BF00BF4E4F08373F6807F021
:100BD000F0010909534F7A5C0768D7404760494FD5
:100BE00008373F6807F4E051890A4E4F7A5C47683E
:100BF000D7408760434F08373F6807F46041490B8F
:100C0000484F7A5C4768D740C760F0BD002100F4C8
:100C10004072B2F5407F0AD13A4A0832116821F495
:100C2000F811414A02401143364A08321160354AF0
:100C300070321268C0F30B031A43324B70331A60E0
:100C40007047354944390860704733494039086076
:100C5000704736490860704701460020294A8C32A7
:100C6000106820F01F004A1E1043264A8C32106084
:100C7000704701460020234A8C32106820F4F85057
:100C80004A1E40EA02201F4A8C321060704701461B
:100C900000201C4A8C32106820F440100843106079
:100CA000704701460020174A8C32106820F440003B
:100CB00008431060704701460020124A8C321068C9
:100CC00020F44030084310607047194908607047AD
:100CD00039B10C4A3032126802430A4B30331A6081
:100CE00006E0084A303212688243064B30331A60FD
:100CF0007047F9B1034A343212680243014B34336E
:100D00001A601CE000380240FFFFF6EA10300024B1
:100D10000030002000004742800E47420024F400CB
:100D200000127A0014000020FFFCFF0F5C01474214
:100D3000E01147428F4A126882438E4B1A60704717
:100D400039B18C4A121D126802438A4B1B1D1A606E
:100D500006E0884A121D12688243864B1B1D1A60EA
:100D6000704739B1834A0C3212680243814B0C330D
:100D70001A6006E07F4A0C32126882437D4B0C33C6
:100D80001A60704739B17B4A103212680243794BBE
:100D900010331A6006E0774A103212688243754BAE
:100DA00010331A60704739B1724A243A126802430C
:100DB000704B243B1A6006E06E4A243A1268824364
:100DC0006C4B243B1A60704739B16A4A203A12686A
:100DD0000243684B203B1A6006E0664A203A1268DC
:100DE0008243644B203B1A60704739B1614A1C3A18
:100DF000126802435F4B1C3B1A6006E05D4A1C3AD6
:100E0000126882435B4B1C3B1A60704739B1594AE8
:100E1000143A12680243574B143B1A6006E0554AD5
:100E2000143A12688243534B143B1A60704739B12D
:100E3000504A103A126802434E4B103B1A6006E0CB
:100E40004C4A103A126882434A4B103B1A60704772
:100E500039B1484A1C3212680243464B1C331A60AF
:100E600006E0444A1C3212688243424B1C331A602B
:100E7000704739B13F4A2032126802433D4B20335C
:100E80001A6006E03B4A203212688243394B203315
:100E90001A60704739B1374A243212680243354B21
:100EA00024331A6006E0334A243212688243314BFD
:100EB00024331A60704739B12E4A2C32126802432B
:100EC0002C4B2C331A6006E02A4A2C3212688243DB
:100ED000284B2C331A60704739B1264A30321268D9
:100EE0000243244B30331A6006E0224A3032126843
:100EF0008243204B30331A607047012808D11D49C6
:100F00003C31096841F008011A4A3C32116007E09F
:100F100018493C31096821F00801164A3C32116039
:100F2000704739B1134A273A12780243114B273BD5
:100F30001A7006E00F4A273A127882430D4B273B7E
:100F40001A7070470B484030006840F080700949C3
:100F500040310860704701460020064A283A12686E
:100F60000A400AB1012000E00020704701492639FB
:100F7000087070473438024010B50446FA4884427D
:100F800008D101211020FFF752FF00211020FFF7A8
:100F90004EFF57E0F548844209D101214804FFF78C
:100FA00035FF00214FF40030FFF730FF4AE0F048F2
:100FB000844209D101218804FFF728FF00214FF462
:100FC0008020FFF723FF3DE0EA48844209D1012158
:100FD000C804FFF71BFF00214FF40020FFF716FFA6
:100FE00030E0E548844209D101210805FFF70EFFF2
:100FF00000214FF48010FFF709FF23E0DF4884420F
:1010000008D101212020FFF712FF00212020FFF747
:101010000EFF17E0DA48844209D101218807FFF763
:10102000F5FE00214FF08040FFF7F0FE0AE0D548C2
:10103000844207D101214005FFF7E8FE0021600549
:10104000FFF7E4FE10BD2DE9FF4705460E460024DC
:10105000A14600BFA046B08900B100BF2C8A24F48D
:101060004054F08804432C82AC8941F20C608443E4
:10107000B08831890843718908430443AC81AC8A44
:1010800024F44074B0890443AC826846FFF74FFDF6
:10109000B548854202D0B948854202D1DDF80C90AE
:1010A00001E0DDF80890A88900F4004040B109EBA8
:1010B000C90000EB091031684900B0FBF1F707E007
:1010C00009EBC90000EB091031688900B0FBF1F7AA
:1010D0006420B7FBF0F004012009642101FB1078C3
:1010E000A88900F4004040B1322000EBC800B0FBFA
:1010F000F1F000F00700044308E0322000EB081094
:101100006421B0FBF1F000F00F0004432C81BDE836
:10111000FF874FF41651016000218180C180018159
:101120000C21418100218181704710B502460020C9
:10113000108A20F470600B884C8823438C882343EA
:10114000CC8823431843108210BD002101804180C8
:101150008180C180704721B1828942F4005282812E
:1011600004E082894DF6FF731A4082817047028B3A
:1011700002F47F420283028B0A430283704721B14B
:10118000828942F40042828103E08289C2F30E0226
:101190008281704721B1828A42F40062828204E037
:1011A000828A4FF2FF731A4082827047C1F30802AD
:1011B0008280704701468888C0F308007047028A21
:1011C0004FF6F0731A400282028A0A430282704785
:1011D00021B1828942F00202828104E082894FF6C5
:1011E000FD731A408281704782894FF2FF731A4063
:1011F000828182890A4382817047028A4FF6DF73B7
:101200001A400282028A0A430282704721B1028A8E
:1012100042F48042028204E0028A4BF6FF731A40D5
:1012200002827047818941F001018181704721B1BB
:10123000828A42F00802828204E0828A4FF6F773C3
:101240001A4082827047028BD2B20283028B42EA3A
:1012500001220283704721B1828A42F020028282F9
:1012600004E0828A4FF6DF731A408282704721B110
:10127000828A42F01002828204E0828A4FF6EF7383
:101280001A4082827047828A4FF6FB731A4082822C
:10129000828A0A438282704721B1828A42F0020226
:1012A000828204E0828A4FF6FD731A408282704780
:1012B0001AB1838A0B43838202E0838A8B43838241
:1012C0007047F0B50346002400260025002040F6B4
:1012D0006A17B94200D100BF1846C1F3421401F0A9
:1012E0001F06012707FA06F5012C01D10C3004E096
:1012F000022C01D1103000E014301AB107682F43DE
:10130000076002E00768AF430760F0BD02460020B7
:10131000B1F5007F00D100BF13880B400BB1012055
:1013200000E00020704701F40072B2F5007F00D1A8
:1013300000BFCA430280704770B5024600240023F4
:101340000025002040F66A16B14200D100BFC1F36B
:10135000421501F01F03012606FA03F3012D13D1F4
:101360009689334017E0000000100140004400401F
:1013700000480040004C0040005000400014014074
:1013800000780040007C0040022D02D1168A3340D4
:1013900001E0968A33400C12012606FA04F41688FE
:1013A000344013B10CB1012000E0002070BD10B535
:1013B0000022002340F66A14A14200D100BF0A12A5
:1013C00001249440A3B2DC43048010BD10B5044650
:1013D0006FF00400FFF73AF9E11704EB5171C1F324
:1013E000C701234A11701046007800EB4001C1EBA1
:1013F000C0104FF6FF7101EAC0001E49088010BD01
:1014000001461B4A12784A434FF0E0235A610022FA
:101410009A6101221A6100BF4FF0E022106900F0CA
:1014200001021AB100F48032002AF5D000224FF0F8
:10143000E0231A619A61704701460E4A12884A43B6
:101440004FF0E0235A6100229A6101221A6100BF25
:101450004FF0E022106900F001021AB100F480326E
:10146000002AF5D000224FF0E0231A619A617047FC
:1014700024000020260000200EB502AA0A213C20EC
:1014800000F0C5FA01AA0B213C2000F0C0FA6A4620
:101490000C213C2000F0BBFA9DF80800482807D139
:1014A0009DF80400342803D19DF80000332801D0B2
:1014B00000200EBD702200213C2000F087FA05209C
:1014C000FFF7BAFF202201213C2000F07FFA05201F
:1014D000FFF7B2FF002202213C2000F077FA05203E
:1014E000FFF7AAFF0120E4E710B5204A03213C20C2
:1014F00000F08DFA1D4A521C04213C2000F087FAAE
:101500001A4A921C05213C2000F081FA174AD21C8D
:1015100006213C2000F07BFA144A121D07213C20D2
:1015200000F075FA114A521D08213C2000F06FFAB4
:1015300010BD0E4840780D49097840EA012000B2FC
:101540000B4908800948C0780849897840EA012099
:1015500000B207498880054840790449097940EA82
:10156000012000B202494880704700002800002096
:101570002E00002008B56A467521D02000F047FAF9
:101580009DF80000682801D0002008BD00226B21D2
:10159000D02000F01BFA0520FFF74EFF0022192192
:1015A000D02000F013FA0520FFF746FF03221A218E
:1015B000D02000F00BFA0520FFF73EFF18221B2178
:1015C000D02000F003FA0520FFF736FF10221C217F
:1015D000D02000F0FBF90520FFF72EFF40226A2102
:1015E000D02000F0F3F90520FFF726FF4222372133
:1015F000D02000F0EBF90520FFF71EFF0120C4E723
:1016000010B5484A3B21D02000F001FA454A521C4F
:101610003C21D02000F0FBF9424A921C3D21D02011
:1016200000F0F5F93F4AD21C3E21D02000F0EFF93E
:101630003C4A121D3F21D02000F0E9F9394A521DE1
:101640004021D02000F0E3F9364A08324321D0206F
:1016500000F0DDF9334A09324421D02000F0D7F9F7
:10166000304A0A324521D02000F0D1F92D4A0B3200
:101670004621D02000F0CBF92A4A0C324721D02055
:1016800000F0C5F9274A0D324821D02000F0BFF9FB
:1016900010BD244840782349097840EA01202249B6
:1016A0000988084400B2214908801E48C0781D49B5
:1016B000897840EA01201E490988084400B21B4984
:1016C0004880184840791749097940EA01201949AA
:1016D0000988084400B2154988801248407A1149A7
:1016E000097A40EA012014490988084400B21349E4
:1016F00008800C48C07A0B49897A40EA01201049D9
:101700000988084400B20D4948800648407B0549D5
:10171000097B40EA01200B490988084400B20749C7
:1017200088807047B0000020400000203400002076
:101730004200002044000020460000203A00002023
:10174000480000204A0000201CB501210220FFF7BC
:10175000BFFA4FF44070009001208DF804008DF81E
:10176000060003208DF8050000208DF8070069466B
:10177000EE48FFF70FF81CBD10B54FF40070EB49B1
:1017800018310880401008800120FFF739FEE74833
:101790001030006808B9012000E0002000F400705B
:1017A00008B1002010BD4FF40070E0491A310880E4
:1017B0000120FFF725FEDD481030006800F40070BE
:1017C00008B10020EEE74FF40070D8491A310880C4
:1017D0000120FFF715FE0120E4E710B54FF48070FB
:1017E000D2491A3108800120FFF70AFE4FF4007039
:1017F000CE491A3108800120FFF702FE4FF48070B5
:10180000CA49183108800120FFF7FAFD4FF4007033
:10181000C649183108800120FFF7F2FD10BD10B550
:101820004FF48070C1491A3108800120FFF7E8FDAC
:101830004FF40070BD491A3108800120FFF7E0FD28
:101840004FF48070B949183108800120FFF7D8FDA6
:101850004FF48070B5491A3108800120FFF7D0FDA0
:1018600010BD10B54FF48070B0491A3108800120C6
:10187000FFF7C6FD4FF40070AC4918310880012015
:10188000FFF7BEFD4FF48070A84918310880012091
:10189000FFF7B6FD4FF48070A4491A31088001208B
:1018A000FFF7AEFD10BD10B54FF480709F491A319F
:1018B00008800120FFF7A4FD4FF400709B49183108
:1018C00008800120FFF79CFD4FF480709749183184
:1018D00008800120FFF794FD94481030006800F460
:1018E000007048B14FF4807090491A31088001208F
:1018F000FFF786FD002010BD4FF480708B491A3130
:1019000008800120FFF77CFD0120F4E770B5044654
:10191000082522E04FF4807084491A3108800120A4
:10192000FFF76EFD04F0800028B14FF400707F498E
:101930001831088004E04FF400707C491A310880A7
:101940006006040E0120FFF75BFD4FF480707749BD
:10195000183108800120FFF753FD2800A5F101018F
:10196000CDB2D7D14FF4807070491A31088070BD64
:1019700070B508250024A8016C491831088019E0C9
:101980006006040E4FF4807068491A310880012007
:10199000FFF736FD4FF4807064491831088001204C
:1019A000FFF72EFD61481030006800F4007008B1A8
:1019B00044F001042800A5F10101CDB2E0D14FF4BB
:1019C00080705A491A310880204670BD70B50446AF
:1019D0000D461646FFF7D0FE08B9002070BDE0B2F4
:1019E000FFF794FFFFF75FFF18B9FFF7F6FE00203F
:1019F000F4E72846FFF78AFFFFF755FF3046FFF769
:101A000085FFFFF750FFFFF7E8FE0120E6E770B51E
:101A100004460D461646FFF7AFFE08B9002070BD1C
:101A2000E0B2FFF773FFFFF73EFF18B9FFF7D5FEEF
:101A30000020F4E72846FFF769FFFFF734FFFFF7C0
:101A40009BFE611CC8B2FFF761FFFFF72CFFFFF799
:101A50008FFF3070FFF705FFFFF7BFFE0120DEE7C5
:101A60002DE9F04104460E4617461D46FFF784FE59
:101A700010B90020BDE8F081E0B2FFF747FFFFF7A3
:101A800012FF18B9FFF7A9FE0020F3E73046FFF771
:101A90003DFFFFF708FF05E015F8010BFFF736FFE4
:101AA000FFF701FF3800A7F10101CFB2F4D1FFF732
:101AB00094FE0120DEE72DE9F04104460F4615466D
:101AC0001E46FFF759FE10B90020BDE8F081E0B2D4
:101AD000FFF71CFFFFF7E7FE18B9FFF77EFE0020B7
:101AE000F3E73846FFF712FFFFF7DDFEFFF744FE8E
:101AF000611CC8B2FFF70AFFFFF7D5FE0FE0012D0A
:101B000005D1FFF735FF3070FFF7ABFE04E0FFF7BC
:101B10002FFF3070FFF783FE761C681EC5B2002DC4
:101B2000EDD1FFF75AFE0120CFE70000000402408C
:101B300010B588B0044601210846FFF7C9F8012115
:101B40001020FFF71FF9072209215848FEF7ADFEC4
:101B500007220A215548FEF7A8FE4FF4C060069000
:101B600002208DF81C008DF81D0000208DF81E004D
:101B700001208DF81F0006A94C48FEF70BFE0294C9
:101B80000020ADF80C00ADF80E00ADF81000ADF877
:101B900014000C20ADF8120002A94548FFF753FAD3
:101BA00025208DF8040002208DF8050000208DF816
:101BB000060001208DF8070001A8FEF7FAFC0122BB
:101BC00040F225513A48FFF77CFB002240F2277192
:101BD0003748FFF776FB01213548FFF7BCFA40F2A2
:101BE00027713348FFF7E3FB40F225513048FFF7F8
:101BF000DEFB08B010BD10B540F225512C48FFF7B0
:101C00009BFB58B12A488088C4B221462848FFF778
:101C1000CDFA40F225512648FFF7C9FB40F2277163
:101C20002348FFF789FB30B3224801780078401C35
:101C3000204A10702048405C1D49888000BF402128
:101C40001B48FFF763FB0028F9D040F227711848C2
:101C5000FFF7ADFB174800781849097888420ADB7E
:101C6000002240F227711248FFF72BFB0020134996
:101C700008701049087010BD70B505460E46002466
:101C80000AE0295D0D4802780078401C0B4B187063
:101C900009488154601CC4B2B442F2DB012240F214
:101CA00027710348FFF70DFB70BD000000000240E4
:101CB000001001404C000020BE0000204D0000201C
:101CC0002DE9F84F05460E4617469846DDE90AAB62
:101CD000002400200090AA222146641CCE484254D1
:101CE0002146641C425402222146641C42540022B4
:101CF0002146641C4254C5F307222146641C425409
:101D00002146641C4554C6F307222146641C4254F4
:101D10002046611CCCB2C0490E54C7F307222046AE
:101D2000611CCCB2BC490A542046611CCCB2BA49F1
:101D30000F54C8F307222046611CCCB2B6490A549E
:101D40002046611CCCB2B44901F80080CAF30722D6
:101D50002046611CCCB2B0490A542046611CCCB26A
:101D6000AD4901F800A0CBF307222046611CCCB29C
:101D7000A9490A542046611CCCB2A74901F800B019
:101D80000C98C0F307222046611CCCB2A2490A5429
:101D90000C98C2B22046611CCCB29F490A540D98DF
:101DA000C0F307222046611CCCB29B490A540D980F
:101DB000C2B22046611CCCB297490A540E98C0F3B7
:101DC00007222046611CCCB293490A540E98C2B235
:101DD0002046611CCCB290490A54201FC8704FF0B5
:101DE00000090AE08C4810F8091000980844C0B2B5
:101DF000009009F1010000F0FF09A145F2DB214646
:101E0000621CD4B2844A0098505421461046FFF711
:101E100033FFBDE8F88F2DE9F04105460E4600245A
:101E2000A046AA222146641C7B4842542146641CD9
:101E3000425407222146641C425400222146641C5D
:101E400042542A0E2146641C4254C5F307422146DF
:101E5000641C4254C5F307222146641C42542046A8
:101E6000611CCCB26C490D54320A2046611CCCB2C4
:101E700069490A542046611CCCB267490E54201FA0
:101E8000C870002706E06448C05D404400F0FF08C9
:101E9000781CC7B2A742F6DB2046611CCCB25E4973
:101EA00001F8008021465C48FFF7E6FEBDE8F081BE
:101EB0002DE9F0432DED048B83B0B0EE408AF0EEB7
:101EC000608AB0EE419A06460F4690460024A1462D
:101ED0000196AA222146641C4F4842542146641CA4
:101EE000425401222146641C425400222146641CB3
:101EF00042549FED4A0A28EE000ABDEEC00A10EED9
:101F0000100A00B20290BDF80800C0F30722214673
:101F1000641C41484254BDF80800C2B22146641C0A
:101F20003D4842549FED3D0A28EE800ABDEEC00AAE
:101F300010EE100A00B20290BDF80800C0F30722AC
:101F40002146641C34484254BDF80800C2B2204601
:101F5000611CCCB230490A549FED300A29EE000AC8
:101F6000BDEEC00A10EE100A00B20290BDF80800E3
:101F7000C0F307222046611CCCB227490A54BDF8A1
:101F80000800C2B22046611CCCB223490A54019811
:101F9000020E2046611CCCB21F490A540198C0F3BE
:101FA00007422046611CCCB21B490A540198C0F379
:101FB00007222046611CCCB217490A540198C2B2CC
:101FC0002146601CC4B2144842542046611CCCB265
:101FD00011490F542046611CCCB20F4901F8008012
:101FE000201FC870002506E00B48405D484400F003
:101FF000FF09681CC5B2A542F6DB2046611CCCB2C5
:10200000054901F8009021460348FFF735FE03B06B
:10201000BDEC048BBDE8F083F00000200000C84256
:102020001CB501211020FEF753FE60200090012016
:102030008DF8040000208DF8060003208DF80500BF
:1020400001208DF8070069460548FEF7A3FB202113
:102050000348FEF71BFC40210148FEF717FC1CBD9E
:1020600000100240FE48B0F9000000EE100AB8EE81
:10207000C00AFC4880ED000AF948B0F9020000EE01
:10208000100AB8EEC00AF84880ED000AF448B0F92A
:10209000040000EE100AB8EEC00AF44880ED000A11
:1020A000F348B0F9000000EE100AB8EEC00AF1489B
:1020B00080ED000AEE48B0F9020000EE100AB8EE1A
:1020C000C00AED4880ED000AE948B0F9040000EECE
:1020D000100AB8EEC00AE94880ED000A704700B562
:1020E0009BB0FFF78DFAFFF7D4FAFFF7FDF9FFF782
:1020F00020FADB48B0F904001790D948B0F9020083
:102100001690D748B0F900001590DDE9161201F0DD
:102110005DF9DB48006803F033F9CDE91401D948D3
:10212000006803F02DF9CDE912019DED141B9DED22
:10213000120B01F079FD8DED160B9DED160B51EC98
:10214000100B02F0D1FB1A90CF48006803F018F989
:10215000CDE912019DED120B01F03EFA8DED140B4D
:102160009DED140B51EC100B02F0B1FBCDE9160103
:102170009DED160B51EC100B02F0B6FB199019985F
:1021800003F0FEF8CDE908019DED080B01F044FED7
:102190008DED0C0B1A9803F0F3F8CDE904019DEDD9
:1021A000040B01F0A5FE8DED080BB148B0F9040059
:1021B000059002F0FAFDCDE906019DED080B53EC08
:1021C000102B9DED060B51EC100B02F019FECDE922
:1021D0000A019DED0C0B53EC102B9DED0A0B51ECFD
:1021E000100B02F00DFECDE910011A9803F0C8F8AB
:1021F000CDE904019DED040B01F00EFE8DED080B01
:102200009B48B0F90200059002F0CFFDCDE9060130
:102210009DED080B53EC102B9DED060B51EC100BB4
:1022200002F0EEFDCDE90C01199803F0A9F8CDE913
:1022300004019DED040B01F05BFE8DED080B1A9877
:1022400003F09EF8CDE900019DED000B01F050FE7A
:102250008DED040B8648B0F90000019002F0A5FD59
:10226000CDE902019DED040B53EC102B9DED020B0B
:1022700051EC100B02F0C4FDCDE906019DED080BF9
:1022800053EC102B9DED060B51EC100B02F0B8FD3A
:10229000CDE90A019DED0C0B53EC102B9DED0A0BC3
:1022A00051EC100B02F052FBCDE90E019DED100B2D
:1022B00053EC102B9DED0E0B51EC100B02F076FF42
:1022C000CDE91401199803F05BF8CDE908019DED03
:1022D000080B01F00DFE8DED0C0B6548B0F9040004
:1022E000099002F062FDCDE90A019DED0C0B53EC63
:1022F000102B9DED0A0B51EC100B02F081FDCDE986
:102300001001199803F03CF8CDE908019DED080B88
:1023100001F082FD8DED0C0B5548B0F900000990DD
:1023200002F043FDCDE90A019DED0C0B53EC102B9F
:102330009DED0A0B51EC100B02F062FDCDE90E0190
:102340009DED100B53EC102B9DED0E0B51EC100B73
:1023500002F0FCFACDE912019DED141B9DED120B6C
:1023600001F062FC8DED160B9DED160B51EC100B80
:1023700002F0BAFA18909DED1A0AF6EE000A20EE65
:10238000200A8DED0B0A0B9802F0FAFFCDE90C0143
:102390009DED0C0B01F0ACFD8DED100B9DED190AC0
:1023A000F6EE000A20EE200A8DED070A079802F0EB
:1023B000E7FFCDE908019DED080B01F099FD8DEDDA
:1023C0000C0B9DED180AF6EE000A20EE200A8DEDAA
:1023D000070A079802F0D4FFCDE908019DED080B2C
:1023E00001F086FD8DED0A0B9DED0C0B53EC102BCF
:1023F0009DED0A0B51EC100B02F002FDCDE90E0130
:102400009DED100B53EC102B9DED0E0B51EC100BB2
:1024100002F0F6FCCDE914019DED1A0AF6EE000A71
:1024200020EE200A8DED0B0A0B9802F0A9FFCDE9F2
:102430000C019DED0C0B01F0EFFC8DED100B9DEDF3
:10244000190AF6EE000A20EE200A8DED070A079819
:1024500002F096FFCDE908019DED080B16E00000A3
:1024600034000020500000205400002058000020BC
:102470002E0000205C00002060000020640000208E
:1024800094000020900000208C00002001F0C4FC8B
:102490008DED0C0B9DED180AF6EE000A20EE200AD9
:1024A0008DED070A079802F06BFFCDE908019DED5D
:1024B000080B01F0B1FC8DED0A0B9DED0C0B53ECFC
:1024C000102B9DED0A0B51EC100B02F099FCCDE99D
:1024D0000E019DED100B53EC102B9DED0E0B51ECEE
:1024E000100B02F08DFCCDE912019DED140B53ECA5
:1024F000102B9DED120B51EC100B02F027FACDE9D9
:1025000016019DED160B51EC100B02F0EDF9FE4992
:1025100008609DED1A0AF6EE000A20EE200A8DED05
:102520000B0A0B9802F02CFFCDE90C019DED0C0B72
:1025300001F072FC8DED100B9DED190AF6EE000A0C
:1025400020EE200A8DED070A079802F019FFCDE969
:1025500008019DED080B01F0CBFC8DED0C0B9DED02
:10256000180AF6EE000A20EE200A8DED070A0798F9
:1025700002F006FFCDE908019DED080B01F0B8FC63
:102580008DED0A0B9DED0C0B53EC102B9DED0A0B02
:1025900051EC100B02F034FCCDE90E019DED100B57
:1025A00053EC102B9DED0E0B51EC100B02F028FCA0
:1025B000CDE914019DED1A0AF6EE000A20EE200A7C
:1025C0008DED0B0A0B9802F0DBFECDE90C019DEDC1
:1025D0000C0B01F08DFC8DED100B9DED190AF6EE44
:1025E000000A20EE200A8DED070A079802F0C8FEC7
:1025F000CDE908019DED080B01F00EFC8DED0C0BF3
:102600009DED180AF6EE000A20EE200A8DED070A6D
:10261000079802F0B5FECDE908019DED080B01F029
:10262000FBFB8DED0A0B9DED0C0B53EC102B9DED80
:102630000A0B51EC100B02F0E3FBCDE90E019DED0E
:10264000100B53EC102B9DED0E0B51EC100B02F008
:10265000D7FBCDE912019DED140B53EC102B9DED32
:10266000120B51EC100B02F0A1FDCDE916019DED0E
:10267000160B51EC100B02F037F9A34948609DEDA1
:102680001A0AF6EE000A20EE200A8DED0B0A0B98CE
:1026900002F076FECDE90C019DED0C0B01F028FC5B
:1026A0008DED100B9DED190AF6EE000A20EE200AC2
:1026B0008DED070A079802F063FECDE908019DED54
:1026C000080B01F0A9FB8DED0C0B9DED180AF6EE41
:1026D000000A20EE200A8DED070A079802F050FE4E
:1026E000CDE908019DED080B01F002FC8DED0A0B10
:1026F0009DED0C0B53EC102B9DED0A0B51EC100BC8
:1027000002F07EFBCDE90E019DED100B53EC102B7A
:102710009DED0E0B51EC100B02F072FBCDE9140194
:102720009DED1A0AF6EE000A20EE200A8DED0B0A46
:102730000B9802F025FECDE90C019DED0C0B01F08C
:102740006BFB8DED100B9DED190AF6EE000A20EEE5
:10275000200A8DED070A079802F012FECDE9080164
:102760009DED080B01F0C4FB8DED0C0B9DED180ADF
:10277000F6EE000A20EE200A8DED070A079802F017
:10278000FFFDCDE908019DED080B01F045FB8DED46
:102790000A0B9DED0C0B53EC102B9DED0A0B51EC2D
:1027A000100B02F02DFBCDE90E019DED100B53EC4B
:1027B000102B9DED0E0B51EC100B02F021FBCDE91F
:1027C00012019DED140B53EC102B9DED120B51ECEF
:1027D000100B02F0BBF8CDE916019DED160B51EC84
:1027E000100B02F081F8484988609DED1A0AF6EE58
:1027F000000A20EE200A8DED0B0A0B9802F0C0FDB6
:10280000CDE90C019DED0C0B01F072FB8DED100B71
:102810009DED190AF6EE000A20EE200A8DED070A5A
:10282000079802F0ADFDCDE908019DED080B01F020
:102830005FFB8DED0C0B9DED180AF6EE000A20EE05
:10284000200A8DED070A079802F09AFDCDE90801EC
:102850009DED080B01F0E0FA8DED0A0B9DED0C0BE0
:1028600053EC102B9DED0A0B51EC100B02F0C8FA43
:10287000CDE90E019DED100B53EC102B9DED0E0BD1
:1028800051EC100B02F0BCFACDE914019DED1A0ACF
:10289000F6EE000A20EE200A8DED0B0A0B9802F0EE
:1028A0006FFDCDE90C019DED0C0B01F0B5FA8DED3E
:1028B000100B9DED190AF6EE000A20EE200A8DEDB0
:1028C000070A079802F05CFDCDE908019DED080BB1
:1028D00001F0A2FA8DED0C0B9DED180AF6EE000A40
:1028E00020EE200A8DED070A079802F049FDCDE998
:1028F00008019DED080B01F0FBFA8DED0A0B9DED33
:102900000C0B53EC102B01E0240100209DED0A0B71
:1029100051EC100B02F074FACDE90E019DED100B95
:1029200053EC102B9DED0E0B51EC100B02F068FADE
:10293000CDE912019DED140B53EC102B9DED120B04
:1029400051EC100B02F032FCCDE916019DED160B97
:1029500051EC100B01F0C8FFFE49C8601BB000BD70
:1029600000B52DED108B99B0B0EE40CAF0EE609A34
:10297000B0EE41AAF0EE61AAB0EE42BAF0EE62BA51
:10298000B0EE439AB0EE638AF0EE448A2CEE0C0A65
:1029900009EEA90A0AEE0A0A10EE101A084602F019
:1029A000EFFCCDE904019DED040B01F00DFB8DED75
:1029B000060B9DED060B51EC100B01F095FF0990F5
:1029C0009DED090ACCEE000AB0EE60CA9DED090A41
:1029D000C9EE800AF0EE609A9DED090ACAEE000A7F
:1029E000B0EE60AA29EE090A08EE080A08EEA80A65
:1029F00010EE101A084602F0C3FCCDE904019DED6B
:102A0000040B01F0E1FA8DED060B9DED060B51EC88
:102A1000100B01F069FF08909DED080AC9EE000A4D
:102A2000B0EE609A9DED080AC8EE000AB0EE608A2A
:102A30009DED080AC8EE800AF0EE608A9FEDC60A96
:102A4000B0EE40DA9FEDC40AF0EE40DAB7EE000ACD
:102A5000B0EE40EABF4890ED000A20EE000AD0ED4B
:102A6000010A90ED011A00EE810AD0ED020A90ED04
:102A7000021A00EEC10AD0ED030A90ED031A00EE2F
:102A8000C10A20EE090AD0ED010A90ED021A60EEAB
:102A9000810A90ED001AD0ED031A41EE610AB0EE02
:102AA000001A28EE011A01EE200AD0ED010A90ED7D
:102AB000031A60EE810A90ED001AD0ED021A41EE81
:102AC000210AB0EE001A28EE811A01EE200A8DEDDF
:102AD000180A90ED010AD0ED020A20EE200AD0ED8E
:102AE000000A90ED031A00EE810AF0EE000A69EE8A
:102AF000200A60EE200A90ED000A20EE000A90ED18
:102B0000011AD0ED011A01EE610A90ED021AD0ED22
:102B1000021A01EE210AD0ED031A90ED032AB0EE5D
:102B2000401A01EEC21AB0EE600A08EE010AD0EDBA
:102B3000020A90ED031A60EE810A90ED001AD0EDC2
:102B4000011A41EE610AB0EE001A28EE811A01EE78
:102B5000200A8DED170A90ED010AD0ED030A20EE50
:102B6000200AD0ED000A90ED021A00EEC10AF0EE44
:102B7000000A69EE200A20EE200AD0ED020A90ED4C
:102B8000031A60EE810A90ED001AD0ED011A41EEB1
:102B9000210AB0EE001A28EE011A01EE200AD0ED4B
:102BA000000A60EEA00A90ED011AD0ED011A41EE84
:102BB000610A90ED021AD0ED021A41EE610A90ED21
:102BC000031AD0ED031A41EE210A08EEA00A8DED9A
:102BD000160A9FED610AF0EE40EA9DED180A60EEDC
:102BE000000A9DED170A40EE000A10EE901A084602
:102BF00002F0C6FBCDE904019DED040B01F0E4F900
:102C00008DED060B9DED060B51EC100B01F06CFEEB
:102C10000FEE100A9DED160AF0EE40FA4D4890EDC9
:102C2000000A20EE000AD0ED010A90ED011A00EE34
:102C3000810AD0ED020A90ED021A00EEC10AD0ED31
:102C4000030A90ED031A00EEC10A20EE0D0AD0ED42
:102C5000010A90ED021A60EE810A90ED001AD0EDA3
:102C6000031A41EE210AB0EE001A2DEE811A01EE90
:102C7000200AD0ED010A90ED031A60EE810A90ED72
:102C8000001AD0ED021A41EE610AB0EE001A2EEEE3
:102C9000011A01EE200A8DED150A90ED010AD0ED22
:102CA000020A20EE200AD0ED000A90ED031A00EE91
:102CB000C10AF0EE000A6DEE200A60EE200A90EDE7
:102CC000000A20EE000A90ED011AD0ED011A01EE83
:102CD000610A90ED021AD0ED021A01EE210AD0ED40
:102CE000031A90ED032AB0EE401A01EEC21AB0EEBC
:102CF000600A0DEE810AD0ED020A90ED031A60EE33
:102D0000810A90ED001AD0ED011A41EE210AB0EED1
:102D1000001A2EEE011A01EE200A8DED140A90ED34
:102D2000010AD0ED030A20EE200AD0ED000A90ED52
:102D3000021A00EE810AF0EE000A6DEE200A20EE83
:102D4000200AD0ED020A90ED031A60EE810A90EDA0
:102D5000001A03E02401002000000000D0ED011A59
:102D600041EE610AB0EE001A2DEE811A01EE200A42
:102D7000D0ED000A60EEA00A90ED011AD0ED011A24
:102D800041EE610A90ED021AD0ED021A41EE610A9D
:102D900090ED031AD0ED031A41EE210A0EEE200A3F
:102DA0008DED130A90ED000A20EE000AD0ED010A25
:102DB00090ED011A00EE810AD0ED020A90ED021AA0
:102DC00000EEC10AD0ED030A90ED031A00EEC10A2D
:102DD00020EE2E0AD0ED010A90ED021A60EE810A73
:102DE00090ED001AD0ED031A41EE210AB0EE001A60
:102DF0002FEE011A01EE200AD0ED010A90ED031A20
:102E000060EE810A90ED001AD0ED021A41EE610ADF
:102E1000B0EE001A2FEE811A01EE200A8DED120A93
:102E200090ED010AD0ED020A20EE200AD0ED000A52
:102E300090ED031A00EEC10AF0EE000A6EEEA00A51
:102E400060EE200A90ED000A20EE000A90ED011AD3
:102E5000D0ED011A01EE610A90ED021AD0ED021ACE
:102E600001EE210AD0ED031A90ED032AB0EE401ACC
:102E700001EEC21AB0EE600A0FEE010AD0ED020AAE
:102E800090ED031A60EE810A90ED001AD0ED011A60
:102E900041EE210AB0EE001A2FEE811A01EE200A4F
:102EA0008DED110A90ED010AD0ED030A20EE200A03
:102EB000D0ED000A90ED021A00EE810AF0EE000A51
:102EC0006EEEA00A20EE200AD0ED020A90ED031A61
:102ED00060EE810A90ED001AD0ED011A41EE610A10
:102EE000B0EE001A2FEE011A01EE200AD0ED000A12
:102EF00060EEA00A90ED011AD0ED011A41EE610AD0
:102F000090ED021AD0ED021A41EE610A90ED031A1B
:102F1000D0ED031A41EE210A0FEEA00A8DED100A42
:102F20009DED130A69EE800A9DED140A4AEE400AEF
:102F30009DED100A28EE001A9DED110A08EEC01A48
:102F400030EE810A8DED0F0A9DED150A6AEE000A3A
:102F50009DED130A4CEE400A9DED120A28EE801AF0
:102F60009DED100A09EE401A30EE810A8DED0E0A31
:102F70009DED140A6CEE000A9DED150A49EEC00A9B
:102F80009DED110A29EE001A9DED120A08EE401A75
:102F900030EE810A8DED0D0A9DED0C0ADDED0F0A74
:102FA0009FEDE01A00EE810A8DED0C0A9DED0B0AF3
:102FB000DDED0E0A9FEDDB1A00EE810A8DED0B0AA6
:102FC0009DED0A0ADDED0D0A9FEDD61A00EE810A8D
:102FD0008DED0A0A9DED0F0AB0EE001AF0EE6A0AB6
:102FE00041EE000A9DED0C0A30EE800AF0EE40AA98
:102FF0009DED0E0AB0EE001AF0EE4B0A41EE000A0B
:103000009DED0B0A30EE800AB0EE40BA9DED0D0A40
:10301000B0EE001AF0EE6B0A41EE000A9DED0A0ACE
:1030200030EE800AF0EE40BA90ED010AB1EE400AAF
:1030300020EE2A0AD0ED020A00EECB0AD0ED030AF8
:1030400000EEEB0AD0ED000A9FEDB71A40EE010A40
:10305000C0ED000A90ED000A20EE2A0AD0ED030A26
:1030600000EECB0AD0ED020A00EEAB0AD0ED010A69
:103070009FEDAD1A40EE010AC0ED010A90ED030A82
:1030800020EE2A0AD0ED000A00EE8B0AD0ED010AEC
:1030900000EEEB0AD0ED020A9FEDA31A40EE010A02
:1030A000C0ED020A90ED020AB1EE400A20EE2A0AB3
:1030B000D0ED010A00EE8B0AD0ED000A00EEAB0A5B
:1030C000D0ED030A9FED981A40EE010AC0ED030A05
:1030D00090ED000A20EE000AD0ED010A90ED011AF1
:1030E00000EE810AD0ED020A90ED021A00EE810A8C
:1030F000D0ED030A90ED031A00EE810A10EE101ACB
:10310000084602F03DF9CDE904019DED040B00F005
:103110005BFF8DED060B9DED060B51EC100B01F0E6
:10312000E3FB0CEE900A814890ED000AC0EE2C0AF9
:10313000C0ED000A90ED010AC0EE2C0AC0ED010AB4
:1031400090ED020AC0EE2C0AC0ED020A90ED030ACF
:10315000C0EE2C0AC0ED030A90ED000A20EE000A32
:10316000D0ED030A90ED031A00EE810AD0ED010ABA
:1031700090ED011A00EEC10AD0ED020A90ED021A9C
:1031800000EEC10A10EE101A084602F0F9F8CDE977
:103190000201664890ED020AF0EE000A20EE200AD5
:1031A000D0ED030A20EE200AD0ED000AB0EE001A9E
:1031B00060EE810A90ED011A00EE810A10EE101AFD
:1031C000084602F0DDF8CDE900019DED021B9DED02
:1031D000000B00F029FD8DED040B9FED550B53EC1A
:1031E000102B9DED040B51EC100B01F009FECDE905
:1031F00006019DED060B51EC100B01F075FB4E49DD
:1032000008604A4890ED000AF0EE000A20EE200A1D
:10321000D0ED020A20EE200AD0ED010AB0EE001A2D
:1032200060EE810A90ED031A00EEC10A10EE101A4A
:10323000084602F0A5F8CDE902019DED020B00F071
:10324000CBF98DED040B9FED3A0B53EC102B9DED5C
:10325000040B51EC100B01F0D3FDCDE906019DEDFF
:10326000060B51EC100B01F03FFB344908602F486E
:1032700090ED000A20EE000AD0ED010A90ED011A4F
:1032800000EE810AD0ED020A90ED021A00EEC10AAA
:10329000D0ED030A90ED031A00EEC10A10EE101AE9
:1032A000084602F06DF8CDE90201204890ED010AD0
:1032B000F0EE000A20EE200AD0ED020A20EE200AED
:1032C000D0ED000AB0EE001A60EE810A90ED031A0C
:1032D00000EE810A10EE101A084602F051F8CDE90E
:1032E00000019DED021B9DED000B00F09DFC8DED9E
:1032F000040B9FED0F0B53EC102B9DED040B51ECC9
:10330000100B01F07DFDCDE906019DED060B51ECA2
:10331000100B01F0E9FA0A49086019B0BDEC108BF6
:1033200000BD00000AD7A33B6F12033A240100201E
:103330000000006066A64C40680000206C00002081
:103340007000002000EE100AB8EEC00ADFED5A0A45
:1033500080EE201A594B83ED001A00EE101AB8EED9
:10336000C00ADFED550A80EE201A554B83ED001A96
:1033700000EE102AB8EEC00ADFED4F0A80EE201AE8
:10338000504B83ED001A7047DFED4F1A60EE211AA3
:103390009FED4E2AC1EE822A4D48C0ED002ADFED96
:1033A0004A1A60EEA11A9FED492AC1EE822A4948C5
:1033B000C0ED002ADFED441A61EE211A9FED432A89
:1033C000C1EE822A4448C0ED002A704700EE100A80
:1033D000B8EEC00ADFED410A80EE201A404B83EDC3
:1033E000001A00EE101AB8EEC00ADFED3C0A80EEBB
:1033F000201A3C4B83ED001A00EE102AB8EEC00AEA
:10340000DFED360A80EE201A374B83ED001A704745
:10341000DFED361A60EE211A3548C0ED001ADFEDF7
:10342000331A60EEA11A3348C0ED001ADFED2F1AEF
:1034300061EE211A3048C0ED001A704700EE100A04
:10344000B8EEC00ADFED2D0A80EE201A2C4B83ED7A
:10345000001A00EE101AB8EEC00ADFED280A80EE5E
:10346000201A284B83ED001A00EE102AB8EEC00A8D
:10347000DFED220A80EE201A234B83ED001A7047FD
:10348000F0EE400AF6EE001A60EEA11AB0EE611AF4
:10349000B0EE600A10EE100A1C49A1EB600000EECD
:1034A000100A21EE002AF7EE081A42EE401A61EEE9
:1034B000801AB0EE610A70473333834174000020F4
:1034C000780000207C00002000003443D80F4940E1
:1034D000800000208400002088000020000080453B
:1034E0008C0000209000002094000020CDCC1C41D6
:1034F000980000209C000020A0000020004088448C
:10350000A4000020A8000020AC000020DF59375F95
:1035100070477047704710B500F008F8006810BD9C
:1035200010B5044600F002F8046010BD0048704772
:103530003401002000487047340100207546FFF731
:10354000F9FFAE4605006946534620F00700854660
:1035500018B020B5FDF716F8BDE820404FF0000682
:103560004FF000074FF000084FF0000B21F007016B
:10357000AC46ACE8C009ACE8C009ACE8C009ACE8AE
:10358000C0098D4670470446AFF300802046FCF723
:1035900044FE000001491820ABBEFEE726000200F1
:1035A000704703B401984100009850EAC12018BF49
:1035B00004204A0D18BF40F0010040F2FF72B2EB48
:1035C000515F08BF40F00200012808BF052002B08B
:1035D000704700000000000070B5C1482DED020BDF
:1035E0002DED0E8B82B0119D25F000449FEDBEDBCA
:1035F0009FEDBFEB844240DBA4F140511098A1F154
:103600007F6108430ED0BC48844202DC27D1109869
:1036100028B39DED100B53EC102B51EC100B01F067
:1036200095F927E09DED100B53EC1D2B51EC100B81
:1036300001F0E6FB9DED100B41EC180B53EC1E2B3B
:1036400051EC100B01F0DCFB53EC182B01F07EF970
:1036500041EC100B02B0BDEC0E8B02B070BD01202E
:10366000FFF75EFF9FEDA60B53EC102B51EC100BF8
:1036700001F014FA41EC100BECE7A3489FEDA48B8A
:10368000844256DA9DED100BB4F1795F0ADA51EC01
:10369000100BFFF786FF042808BF01F0BDF89DED71
:1036A000100BD7E753EC102B51EC100B01F0A8FBDB
:1036B00041EC190B98480621B0EE490AF0EE690A70
:1036C000784400F095FF53EC192B51EC100B01F0EE
:1036D00097FB41EC1A0B9148B0EE490AF0EE690AEB
:1036E0000421784400F084FF53EC192B51EC100BAB
:1036F00001F086FB53EC182B01F028F941EC100B7C
:1037000051EC1A0B53EC102B01F0C8F9CDE9000174
:103710009DED000B53EC102B9DED100B51EC100B9D
:1037200001F06EFB9DED101B53EC112B01F00EF917
:10373000A0E79DED100B51EC100B01F085F853EC58
:10374000182B01F05BFC9FED760BCDE9000153ECEB
:10375000102B9DED000B51EC100B01F051FB41ECD7
:10376000190B71480621B0EE490AF0EE690A784457
:1037700000F03EFF53EC192B51EC100B01F040FB15
:1037800041EC1B0B6948B0EE490AF0EE690A0421CE
:10379000784400F02DFF53EC192B51EC100B01F085
:1037A0002FFB53EC182B01F0D1F841EC1C0B51EC22
:1037B000190B01F055F841EC180B5D489FED5EAB1D
:1037C000A04222DC53EC1C2B51EC1B0B01F066F9E0
:1037D000CDE900019DED000B51EC180B53EC102BC3
:1037E00001F00EFB53EC182B01F0B0F853EC1A2B40
:1037F00001F006FB53EC1D2B01F0D8FC53EC1E2B03
:1038000001F0FCFB41EC100B5FE08DED008B002024
:1038100000909DED000B51EC180B53EC102B01F0B8
:1038200095F89DED000B41EC1E0B53EC102B51EC69
:10383000100B01F0E5FA53EC192B01F0DFFB53EC10
:103840001E2B01F02BF941EC190B53EC1C2B51EC06
:103850001B0B01F023F941EC1B0B53EC1A2B51EC21
:10386000190B01F0CDFA53EC1D2B01F0C7FB41EC15
:10387000190B53EC1A2B51EC180B01F0C1FA53EC55
:103880001B2B01F0BDFA53EC192B01F08FFC9DEDC1
:10389000000B41EC180B53EC1A2B51EC100B01F000
:1038A000AFFA9FED279B53EC192B01F0A7FB41ECDE
:1038B000100B51EC180B53EC102B01F077FC53EC70
:1038C000192B01F09BFB41EC100B002D3FF7C2AE12
:1038D00051EC100B00F0FBFFCCE6000000000000F4
:1038E0000000F03F00000000075C143326A6913C66
:1038F000182D4454FB21F93F0000F07F0000000028
:1039000000000000000000000000E03F0000000098
:10391000000000000000F03FB41D0000C21D0000C8
:10392000000000000000E03F061D0000141D000024
:103930003333EF3F000000000000000000000040B3
:10394000182D4454FB21E93F70B59D482DED020B25
:103950002DED068B079D25F00044A0421DDC994803
:10396000844202DC0FD1069868B19DED060B53EC42
:10397000102B51EC100B00F0E9FFBDEC068B02B0F0
:1039800041EC100B70BD002DCCBF9FED8F0B9FED58
:10399000900BBDEC068B02B070BD8F48A04215DDC8
:1039A0008E48A042D8BF4FF0FF3458DD9DED060B86
:1039B00051EC100BFFF7F5FD042808BF00F02CFFB9
:1039C0009DED060BBDEC068B02B070BD9DED060BA8
:1039D00051EC100B00F038FFCDE9060180489FED57
:1039E000828BA0423CDD8248A0421FDD00249FED77
:1039F00082AB9DED060B53EC1A2B51EC100B00F033
:103A0000A5FF9DED060B41EC190B53EC1A2B51EC65
:103A1000100B01F0F5F953EC182B01F0C7FB53EC38
:103A2000192B01F03BF8CDE9060149E09DED060BAD
:103A3000012453EC182B51EC100B00F087FF9DED87
:103A4000060B41EC190B53EC182B51EC100B01F049
:103A5000ADFB53EC192B01F021F8CDE906012FE065
:103A60006748A0421FDD02249FED679B9DED060B7A
:103A700053EC192B51EC100B01F0C2F953EC182B3D
:103A800000F064FF9DED060B41EC180B53EC192B75
:103A900051EC100B01F08AFB53EC182B00F0FEFFE9
:103AA000CDE906010CE09DED060B032453EC102B31
:103AB0009FED570B51EC100B00F0F0FFCDE9060124
:103AC0009DED060B53EC102B51EC100B01F098F907
:103AD00041EC180B53EC182B01F092F941EC190B47
:103AE0004D480621B0EE490AF0EE690A784400F02C
:103AF0007FFD53EC182B51EC100B01F081F941ECD8
:103B0000180B4648B0EE490AF0EE690A05217844E0
:103B100000F06EFD53EC192B51EC100B01F070F915
:103B200041EC100B51EC180B53EC102B002C0EDA5F
:103B300000F00CFF9DED061B53EC112B01F060F91A
:103B40009DED061B53EC112B01F058FA35E000F007
:103B5000FDFE9DED061B53EC112B01F051F941ECDC
:103B6000100B2F48784400EBC40090ED001B51EC83
:103B7000100B53EC112B01F019FB9DED061B53ECC0
:103B8000112B01F013FB41EC100B2648784400EB9D
:103B9000C40090ED001B51EC100B53EC112B01F005
:103BA0002DFA41EC100B002DA2BFBDEC068B02B02C
:103BB00070BD51EC100B00F08AFE41EC100B01E7D8
:103BC000000010440000F07F182D4454FB21F93F01
:103BD000182D4454FB21F9BF0000DC3F0000203EBB
:103BE0000000F33F00000000000000000000F03F74
:103BF0000000E63F00000000000000000000004060
:103C00000080034000000000000000000000F83FBA
:103C1000000000000000F0BF401A0000F61900008C
:103C2000801900003819000070B56B4E2DED040BA3
:103C30002DED028B82B0DDF81CC0DDE905235C426E
:103C40002CF000411C4341EAD474049D22F0004052
:103C5000B44205D86C422C4340EAD474B44210D923
:103C60009DED060B53EC102B9DED040B51EC100B4E
:103C700000F06CFE41EC100B02B0BDEC028B04B006
:103C800070BDACF14054A4F17F641C430BD00224FE
:103C900004EAAC7444EAD27405439FED518B9FED66
:103CA000522B07D010E09DED040B51EC100B00F0EF
:103CB000C3FD39E0002C14BF012C9DED040BDBD0BB
:103CC000022C34D0032C37D00B439FED491B9FEDC2
:103CD0004A0B0AD0B14218D1B04209D121F080413B
:103CE00020F08040079105900FE0002AC4DA10E030
:103CF000434B7B44002C08BF93ED000BBCD0012C40
:103D00000CD0022C13D0032C16D0B04219D1002AAB
:103D1000B2DAB0EE410AF0EE610AADE793ED000BC6
:103D200051EC100B00F0D3FD41EC100BA4E7B0EE0A
:103D3000480AF0EE680A9FE7B0EE420AF0EE620A27
:103D40009AE7401A00153C28C8BF8DED000B19DC1E
:103D5000BCF1000FBEBF10F13C0F9FED2B0B8DEDA2
:103D6000000B0FDB9DED060B53EC102B9DED040BB0
:103D700051EC100B00F092FE00F066FD00F05CFDCF
:103D8000CDE90001002C08BF9DED000B3FF474AF9E
:103D9000012C10D0022C9FED1E0B53EC102B9DED2F
:103DA000000B51EC100B0DD001F000FA53EC182B66
:103DB00001F0FCF9B8E7019880F0004001909DED1A
:103DC000000B59E701F0F2F953EC182B01F016F94A
:103DD000AAE70000000000000000F07F00000000E3
:103DE000182D4454FB210940182D4454FB2109C0CF
:103DF000182D4454FB21F9BF182D4454FB21F93FE1
:103E00009A18000000000000000000000000000000
:103E1000075C143326A6A13C10B533492DED020BE7
:103E20002DED028B84B09FED2E8B079820F0004083
:103E3000B0EE481AF0EE681A8842D8BF9DED060B26
:103E400036DD2A4988420CD1069858B94FF0010056
:103E5000FFF766FB53EC182B51EC180B00F01EFE1D
:103E600034E008DB9DED060B53EC102B51EC100BEE
:103E700000F06CFD2AE068469DED060B00F0E4F8CA
:103E800010F0030004BF9DED021B9DED000B0FD051
:103E9000012810D09DED021B9DED000B022818D0CB
:103EA000012000F021FC04B0BDEC028B02B010BD7B
:103EB00000F0E6FAF7E79DED021B9DED000B0120F7
:103EC00000F012FC51EC100B00F001FD41EC100B66
:103ED000E9E700F0D5FA51EC100B00F0F8FCF5E73B
:103EE0000000000000000000FB21E93F0000F07F1F
:103EF00010B533492DED020B2DED028B84B09FEDF3
:103F00002E8B079820F00040B0EE481AF0EE681AA9
:103F10008842DCBF00209DED060B35DD2949884233
:103F20000CD1069858B94FF00100FFF7F9FA53EC9D
:103F3000182B51EC180B00F0B1FD3AE008DB9DEDB9
:103F4000060B53EC102B51EC100B00F0FFFC30E093
:103F500068469DED060B00F077F810F003000ED0D8
:103F6000012818D09DED021B9DED000B022819D0F1
:103F700000F086FA51EC100B00F0A9FC19E09DED61
:103F8000021B9DED000B012000F0AEFB04B0BDEC68
:103F9000028B02B010BD9DED021B9DED000B00F0E9
:103FA0006FFAF3E7012000F09FFB51EC100B00F0DB
:103FB0008EFC41EC100BE9E700000000000000005F
:103FC000FB21E93F0000F07F00B52DED048BB0EE42
:103FD000409AF0EE609A83B051EC190B01F01AF898
:103FE00041EC180B18EE100A18EE901A8DED008BAC
:103FF000002818BF0120084320F00040C0F17F6076
:1040000000F1E040C00F14D019EE101A19EE900A1A
:104010008DED009B002918BF0121084320F00040CE
:10402000C0F17F6000F1E040C00F04BF0120FFF746
:1040300077FAB0EE480A03B0F0EE680ABDEC048BE4
:1040400000BD0000000000002DE9F14F04462DEDF9
:10405000020B2DED088B96B09FEDE70B80ED020B68
:104060001F9EE74826F0004585420ADC9DED1E0BA9
:10407000002084ED000B16B0BDEC088B03B0BDE84A
:10408000F08FE0489FEDE0AB9FEDE1BBA84247DD3C
:10409000E14F9FEDE38B9FEDE49B9DED1E0B53ECF9
:1040A0001A2B51EC100B002E1CDD01F07FF841ECB7
:1040B000100BBD4208D053EC1B2B51EC100B01F040
:1040C00075F8C4E900010BE053EC182B51EC100B10
:1040D00001F06CF853EC192B01F068F8C4E9000109
:1040E0000120C8E700F032FC41EC100BBD4208D0C3
:1040F00053EC1B2B51EC100B00F028FCC4E9000121
:104100000BE053EC182B51EC100B00F01FFC53ECA0
:10411000192B00F01BFCC4E900014FF0FF30AAE7A7
:10412000C348A84279DB9DED1E0B51EC100B00F04B
:104130008BFB41EC180B9FEDC00B53EC102B00F0E8
:104140005FFE9FEDBF1B53EC112B00F0FFFB00F057
:10415000FDFD074600F029FE41EC190B53EC1A2B2C
:1041600000F04EFE53EC182B00F048FF41EC180B0A
:1041700053EC1B2B51EC190B00F042FEDFF8C8A2E8
:1041800041EC100B4FEA15580125FA4453EC102B63
:1041900051EC180B01F00AF8032DC4E900013DD0E1
:1041A000C1F30A5005EB4511A8EB0000113981421B
:1041B00034DA0AEB051BB0EE48AA9BED000BF0EEDB
:1041C00068AA53EC102B51EC190B00F019FE41ECCE
:1041D0001B0B51EC1A0B53EC1B2B00F0E7FF41ECCF
:1041E000180B51EC1A0B53EC182B00F0DFFF53ECBB
:1041F0001B2B00F0DBFF9BED020B41EC1A0B53EC89
:10420000102B51EC190B00F0FBFD53EC1A2B00F0B6
:10421000CDFF41EC100B6D1CB8E70EE0002EA8BFDF
:104220003846BFF628AF94ED000B51EC100B00F0B0
:104230004EFBC4E9000178421DE7C6F3130040F4C9
:10424000801005901E980E90C6F30A50A0F2F5302B
:1042500000F01F07411100200C900D907B48C7F122
:104260002008784400EB810000F114030DA8062615
:1042700019685A68B94022FA08F21143059AD0F831
:1042800000A0A1FB02C50E9AA1FB022192448C441E
:10429000924534BF4FF0010B4FF0000B50F8042C47
:1042A0000CEB0B0E72448C4534BF012100212944D4
:1042B000BBF1000F02D0624502D904E0624502D290
:1042C0004FF0010C01E04FF0000C40F808A96144E8
:1042D000E0E801121B1F761ECAD1089800F10050B9
:1042E000850F0898DDE909678000DDF82C8000F073
:1042F0005CFD41EC1B0B304600F06EFD9FED541B46
:1043000053EC112B00F07CFD41EC180B384600F00B
:1043100063FD9FED511B53EC112B00F071FD41EC3F
:10432000190B404600F058FD9FED4D1B53EC112B2F
:1043300000F066FD41EC1A0B51EC190B53EC1A2BF3
:1043400000F004FB53EC182B00F000FB53EC1B2B8C
:1043500000F0FCFACDE90401002004909DED040B6F
:1043600053EC1B2B51EC100B00F020FF53EC182BDF
:1043700000F01CFF53EC192B00F018FF53EC1A2B24
:1043800000F03CFE9FED381B53EC112B00F038FD84
:104390009FED370B41EC180B53EC102B9DED040BEC
:1043A00051EC100B00F02CFD53EC182B00F0CEFA62
:1043B0009FED310B41EC180B53EC102B9DED040BD2
:1043C00051EC100B00F01CFD53EC182B00F0BEFA62
:1043D00041EC100B1F9810F0004F06D06D4251ECCD
:1043E000100B00F074FA41EC100B284684ED000B22
:1043F00041E6000000000000000000000000000096
:10440000FB21E93F7CD9024000004054FB21F93FE9
:104410003163621A61B4D03DFB21F93F0000000016
:104420000000601A61B4D03D7370032E8A19A33B5B
:10443000FB2139410000000083C8C96D305FE43FB3
:10444000000000000000E03F0A14000062130000BA
:10445000000000000000103E000000000000103CC2
:10446000000000000000103A182D4454FB21F93DD3
:104470003326A611460B113C00000054FB21F93DE8
:1044800010B52DED040B2DED088B82B0B0EE419AE6
:10449000F0EE619A0B9820F000449FED4BABB4F125
:1044A000795F11DA9DED0A0B51EC100B00F04EFC18
:1044B000002801BFB0EE4A0AF0EE6A0A02B0BDEC75
:1044C000088B04BF04B010BD9DED0A0B53EC102BFC
:1044D00051EC100B00F094FC41EC180B3C48062109
:1044E000B0EE480AF0EE680A784400F081F853EC28
:1044F000182B51EC100B00F083FC9DED0A0B41ECE6
:104500001B0B53EC192B51EC100B00F079FC41EC18
:10451000190B53EC1B2B51EC180B00F071FC53ECF6
:10452000192B00F043FE9FED2C0B41EC190B53ECC3
:10453000102B51EC180B00F063FC41EC100B2848D9
:10454000844210DA53EC192B51EC100B00F02EFEC4
:1045500053EC1A2B00F052FD41EC100B02B0BDECF5
:10456000088B04B010BD1F48A042BCBF9FED1E1BAE
:104570008DED001B06DBA4F50010019000200090DB
:104580009DED001B51EC100B53EC112B00F00EFEB7
:104590009DED000B41EC180B53EC102B51EC1A0B5A
:1045A00000F004FE41EC1A0B53EC192B51EC180BE4
:1045B00000F0FCFD53EC1A2B00F020FD41EC100B39
:1045C000CCE7000000000000000000000000F03F09
:1045D0007410000000000000000000000000E03F38
:1045E0003333D33F0000E93F000000000000D23F1A
:1045F00070B504462DED028B4D1E00EBC500B0EEEC
:10460000408AF0EE608A90ED000B35F0060017D07E
:1046100053EC182B51EC100B00F0F2FB41EC100B9B
:104620006D1E04EBC50090ED001B51EC100B53EC1C
:10463000112B00F08BF941EC100B35F00600E7D19F
:10464000022D36D0042D1CD0062D1CBFBDEC028BD4
:1046500070BD53EC182B51EC100B00F0D1FB94ED16
:104660000A1B53EC112B00F071F953EC182B00F0DE
:10467000C7FB94ED081B53EC112B00F067F941ECDC
:10468000100B53EC182B51EC100B00F0B9FB94ED10
:10469000061B53EC112B00F059F953EC182B00F0CA
:1046A000AFFB94ED040B53EC102B00F04FF941ECF1
:1046B000100B53EC182B51EC100B00F0A1FB94EDF8
:1046C000021B53EC112B00F041F953EC182B00F0B6
:1046D00097FB94ED001B53EC112B00F037F9BDEC68
:1046E000028B41EC100B70BD31B504462DED040B6F
:1046F0002DED0A8BB0EE41BAF0EE61BA0B989DED4C
:104700000A0B20F00040B0F1795F0DDA51EC100B8C
:10471000FEF747FF042808BF00F07EF89DED0A0B66
:10472000BDEC0A8B05B030BD53EC102B51EC100BD7
:1047300000F066FB41EC180B9DED0A0B53EC182BB7
:1047400051EC100B00F05CFB41EC190B2C48B0EE67
:10475000480AF0EE680A05217844FFF749FF9FED0B
:104760002ACBB0EE40AAF0EE60AA9CB353EC1C2B0F
:1047700051EC190B00F044FB41EC1C0B53EC1A2BD1
:1047800051EC190B00F03CFB9FED210B41EC190B98
:1047900053EC102B51EC1B0B00F032FB53EC192B9C
:1047A00000F004FD53EC182B00F02AFB53EC1B2BFC
:1047B00000F0FCFC53EC1C2B00F0F8FC9DED0A1BF8
:1047C00053EC112B00F01AFCBDEC0A8B05B041EC48
:1047D000100B30BDFFE753EC1A2B51EC180B00F017
:1047E0000FFB53EC1C2B00F0B1F853EC192B00F02D
:1047F00007FB9DED0A1B53EC112B00F0A7F8E3E734
:10480000040F000000000000495555555555C5BF1F
:10481000000000000000E03F9FED050B10B553ECD9
:10482000102B51EC100B00F0EBFA41EC100B10BD0B
:10483000000000000000001010B541EC100BFFF765
:1048400083F851EC100B10BD82B0CDE9000121F0CE
:10485000004001909DED000B02B051EC100B704731
:1048600000B52DED048B83B041EC190B00F0D2FBA9
:1048700041EC180B18EE100A18EE901A8DED008B13
:10488000002818BF0120084320F00040C0F17F60DD
:1048900000F1E040C00F14D019EE101A19EE900A82
:1048A0008DED009B002918BF0121084320F0004036
:1048B000C0F17F6000F1E040C00F04BF0120FEF7AF
:1048C0002FFE51EC180B03B0BDEC048B00BD81F042
:1048D0000041704780F00040704721F00041704770
:1048E00020F000407047000021F00042A2F1605229
:1048F000B2F5801F01F0004328BFD2F17F6C0BD9C5
:104900005FEA001C43EAC20242EB507018BF7047D6
:1049100028BF20F001007047B2F5801FBCBF1846C9
:1049200070474FEA410C1CF5001F02D2084600F008
:104930009DBD70B500F00EFB00000089FFF7F6BFCB
:104940004FF00040A0F580007047000010B591EADC
:10495000030F48BF83F0004300F13084841A71EBE9
:10496000030C05D2121943EB0C03001B61EB0C0185
:10497000DFF824E14FEA1154A4EB135C1EEA430F65
:1049800018BF9EEA445F73D023EA0E03DCF1200EC9
:1049900021EA045143F4801332D322FA0CFE10EBC7
:1049A0000E0023FA0CFE41EB0E01CCF1200E03FAAF
:1049B0000EFE10EB0E0051F10001B1F5801FCCF19D
:1049C000200E32D201EB045112FA0EF2BDE8104073
:1049D00058BF7047401C38BF5FEA420218BF70479B
:1049E000002814BF20F0010041F100014FEA41030B
:1049F00013F5001F38BF7047A1F1C04100F0F8BAAD
:104A0000012A43EB0302ACF1200CDCF11F0E32BF94
:104A10004FF0000E23FA0CF310EB030041EB0451AE
:104A2000B4EB115FD0D0A1EB045101F5801149081E
:104A30005FEA300001EB04510ED350F1000038BFA3
:104A400012FA0EFE08D1BDE81040C9E7401C38BF7D
:104A50005FEA4202CAD1C3E7BDE810404FEA410312
:104A600013F5001F38BF7047A1F1C04100F0C0BA74
:104A70009EEA445F08D011EA5E0FBDE8104004BF13
:104A800001F0004100207047BDE8104070B500F013
:104A900061FA00BF64FBBE3E0000E0FF2DE9C041AB
:104AA00030B4DFF8A0C23CEA111418BF3CEA13147A
:104AB00000F0EC8081EA03051CEA111444EAD57485
:104AC00018BF1CEA131500F0C780A4EB05044FF0D3
:104AD000004545EAC12145EAC32341EA505143EA72
:104AE000525304F17F74994204F500344FEAC02018
:104AF0004FEAC22208BF904200F09C804FEA136543
:104B00000FF24016765D4FEA134506FB05F7C7F135
:104B1000807706FB07F74FEAD737A7FB0368764293
:104B2000C8F58038A7FB06CE38BFA8F1010807FBFF
:104B300008E64FF0000EA6FB028CE6FB03CEDCF18C
:104B4000000CCEF1004E38BFAEF1010EA6FB0C58A2
:104B50004FF000074FF00005E6FB0E87A1FB08C6EB
:104B6000A0FB07CE16EB0E0645F10005E1FB07653D
:104B700015F1E04E7EBFA4F580345FEA46066D4134
:104B800016F1800745F100054FEA17274FEA066640
:104B900047EA0567A6F1DE46B6F1805F4FEA1525C4
:104BA0001FD9384624F0010C05EBC471BCF1FE6F2F
:104BB00001EB0C1102D8F0BCBDE8008124425CBFBF
:104BC00001F5801E9EEAC47F02D4F0BCBDE80081DE
:104BD000244238D4F0BCA1F1C041BDE8004100F04E
:104BE00007BA4FEAD22242EA43524FEAD323A7FB45
:104BF00002864FEAD02040EA415007FB03661EEAD6
:104C00000E0F4FEAD12105FB026658BFA6EB0056F6
:104C1000B6EB00564FEA520E4EEAC37E18EB0E0E6C
:104C200056EB530EBDD518EB02085E417F1C55F1C3
:104C30000005B6E74FF480154FF000074FF000066F
:104C40004FF00008ADE7F0BC4FF0000001F1C041AB
:104C500001F00041BDE8008111EA0C1F0CEA1315B8
:104C600000D00CE013EA0C1F00F025804FF000008C
:104C7000F0BC81EA030101F00041BDE80081F0BC15
:104C800081EA0301BDE8004100F0B2B9F0BCBDE823
:104C9000004170B500F05EF9097EFC3E00F007B8F7
:104CA00081EA03014FF0000001F00041704781EA02
:104CB000030100F09DB9F0BC4FF000002249BDE8AF
:104CC00000417047FFFDFBF9F7F5F4F2F0EEEDEB74
:104CD000E9E8E6E4E3E1E0DEDDDBDAD8D7D5D4D3FA
:104CE000D1D0CFCDCCCBCAC8C7C6C5C4C2C1C0BF46
:104CF000BEBDBCBBBAB9B8B7B6B5B4B3B2B1B0AF4C
:104D0000AEADACABAAA9A8A8A7A6A5A4A3A3A2A12F
:104D1000A09F9F9E9D9C9C9B9A99999897979695EA
:104D200095949393929191908F8F8E8E8D8C8C8B86
:104D30008B8A89898888878786858584848383820E
:104D4000828181800000FF070000F87F4FEA410365
:104D50004FEA5353A3F58063D3F11E03C8BFD3F1C9
:104D6000210C0CDD4FF0004242EAC12242EA5052CF
:104D700032FA03FC8CEAE17CACEBE1707047102B5B
:104D8000C4BF0020704703F5787CBCF1FF3F04D01E
:104D90006FF0004282EA2100704770B500F0DAF847
:104DA0004992248000207047F2E710F0004248BF8B
:104DB0004042B0FA80F310FA03F10AD0C3F11D03A8
:104DC00003F580634FEA415002EB035202EBD1211D
:104DD00070474FF000007047B0FA80F310FA03F10B
:104DE0000AD0C3F11D0303F580634FEA41504FEA37
:104DF000035202EBD12170474FF0000070470000D2
:104E0000DFF848C170B51CEA111E1EBF1CEA13155D
:104E10009EEA0C0F95EA0C0F00F06F8081EA030404
:104E200023EA4C134EEAD47E21EA4C1141F480115E
:104E300043F48013AE44A1FB024CA0FB0365AEF12A
:104E40007F7E361955EB0C05A1FB034C4CF100039A
:104E5000A0FB021C16EB0C06654153F1000309424E
:104E600018BF46F0010613F4007F0BD14FEA03315F
:104E70004FEA0530340341EA155140EA16506FF00D
:104E800003020AE04FEAC3214FEAC520F40241EAD7
:104E9000555140EA56506FF0020202EB2E4201EBF0
:104EA000025585EACE710AD05FEA440C18BF24F09F
:104EB000004450F1000041F1000120EAD47040F2BA
:104EC000FE7C624500D270BDA84214BF4FF0804402
:104ED0004FF04044002E08BF0024BEF1806FA8BFF1
:104EE000A1F1C041BDE8704080F282804FF0000027
:104EF00001F1C04101F0004170479EEA0C0F0CEA3D
:104F0000131518BF95EA0C0F06D04FF0000081EA88
:104F1000030E0EF0004170BD00F01CF88900013E48
:104F200000F007B800F009B84FEA430C5FEA5C5C98
:104F300008D081EA030100F05BB84FEA410C5FEA58
:104F40005C5CF6D14FF00000014970470000FF079C
:104F50000000F87F0EF1020E2EF0030E5EF8046BD7
:104F6000364205D4012A43EB030515F5001F12D87C
:104F7000012841EB010C1CF5001F0CD80ED14FEAA3
:104F8000D17C15F5001F0CEB4C0C0CF1020C08BF8A
:104F90004CEBD37C04E04FF0080C01E04FEAD37CEB
:104FA0000CEB4C0526FA05F606F00706B6F1040CE4
:104FB00006D20EEB860CBDE870404CF0010C604749
:104FC000DFE80CF0090B02024FF000414FF0000047
:104FD000A1F5002170BD19461046012851EB0104CE
:104FE00018BFD4F5001484BF002001F0004170BD4B
:104FF0000808A0F500114FEA3101704791EA030F4C
:1050000010B581F000413FF5A9AC83F0004300F0FA
:10501000D5B800002DE9F04101F5801CBCF5001F5A
:10502000C0F2A9804FEA115C21EA0C510CF1FD0C91
:1050300041F480115FEA5C0C0CF5C07C01D34000A8
:10504000494130A4890241EA905187028E0E0A0C30
:10505000A45D04FB04F602FB06F6C6F14046A4FB81
:105060000662F60D46EA422606FB06F4A4FB01237F
:105070005242C3F1404338BF5B1EA6FB02420024EC
:10508000E6FB0324D20B42EA4446A6FB0623A1FB1F
:1050900002E2A3FB07E4E3FB61426442C2F1404E3B
:1050A00038BFAEF1010EA6FB04234FF00002E6FB71
:1050B0000E32A2FB03463400E2FB6264A1FB06E66B
:1050C000A4FB07E8E4FB61687642C8F1405838BFAA
:1050D000A8F10108A2FB06E4A3FB08E5E2FB685483
:1050E000A1FB05E6A7FB04E8E1FB648618F12005B7
:1050F00056F10006A809A8F11B08B10908F03F08FD
:10510000B8F10A0F40EA86601CD901EB0C51BDE8EA
:10511000F08100BFFCF5EEE8E2DDD8D3CFCBC7C30A
:10512000C0BDB9B6B4B1AEACA9A7A5A3A19F9D9BC4
:105130009A9896959392908F8D8C8B898887868587
:1051400084838281A0FB006800FB01F208EB420827
:10515000B8EB872807D5341858EB0104D5D5401C87
:1051600051F10001D1E7341A78EB0104CDD4401E8F
:1051700071F10001C9E75FEA4C0C5FEA9C5C0DD15C
:1051800005D34FF0000001F00041BDE8F081BDE81B
:10519000F04170B5FFF7DEFE6DDBFFBEBDE8F0410C
:1051A0004FF00000004970470000F87F10B591EA09
:1051B000030F48BF83F000433FF5D0AB841A71EB77
:1051C000030C07D212198CF0004C43EB0C03001BAC
:1051D00061EB0C01DFF8A4E14FEA1154A4EB135C7E
:1051E0001EEA430F18BF9EEA445F00F0B08023EA36
:1051F0006E03524221EA0451C3EB6E0338BF5B1EBB
:10520000DCF1200E25D322FA0CFE10EB0E0043FA3F
:105210000CFE41EB0E01CCF1200E03FA0EFE10EB5A
:105220000E0051F10001CCF1200E29D412FA0EF239
:1052300001EB0451BDE8104058BF7047401C1CBF33
:10524000B2F1004F704700280CBF491C20F001004C
:10525000704712EB020E43EB030218BF4FF0010E32
:105260004EEA4202ACF1200CDCF11E0E54D943FA96
:105270000CFE10EB0E0051F1FF31CCF11E0ED5D516
:105280000EF1010E12FA0EFE404141EB010101EB5D
:10529000445C5FEA5C5C10D910EBDE7001EB0451FA
:1052A00038BFBEF1004FBDE8104018BF704700285E
:1052B0000CBF491C20F00100704730D24FEAD42CBB
:1052C00011F5001124F400641BD0B1FA81F20B3AFD
:1052D000A41AA41ED2F12003914030FA03F319431B
:1052E000904001EBCC71002C01EB0451BDE8104063
:1052F000A8BF704701F1C0414FF0000001F000412C
:105300007047B0FA80F310FA03F100D110BDE41A2F
:10531000173C4805C90AE4E701EB045110BD4910E8
:1053200001EB0451BDE810404FEA300002E04FF0BD
:10533000000170474A0008BF0042F8D0B2F5001FD4
:1053400028BF704701F000414FF0000070479EEA0F
:10535000445F07D011EA5E0FBDE8104004BF002192
:1053600000207047BDE8104070B5FFF7F3FD00BFA7
:1053700040DFF63E83F00041104670470000E0FF3A
:1053800043004FEAD30C4FEA3C0C43401FBF400799
:105390000CF1605113F0FE4F70471CF0006F03D109
:1053A00000200CF0004170470CF0004343EA5070BD
:1053B00010B540EACC0000F00EF800BF00000092EB
:1053C0004FEA0001FFF714BE4FF000414FF000001C
:1053D000A1F5002170470EF1020E2EF0030E5EF8CB
:1053E000044B244204D44FEA4102B2F17F4F11D85A
:1053F0004FEA4003B3F17F4F0CD80ED14FEAD07C77
:10540000B2F17F4F0CEB4C0C0CF1020C08BF4CEBD3
:10541000D17C04E04FF0080C01E04FEAD17C0CEBAA
:105420004C0324FA03F404F00704B4F1040C06D28C
:105430000EEB840CBDE810404CF0010C6047DFE837
:105440000CF0070802024FF00040A0F5800010BDEC
:105450000846420018BFD2F1807288BF00F00040B9
:1054600010BD4FF04070E1EE100A7047FF2141EA95
:10547000D050C00570470000555555555555C53F8E
:105480007D6FEB0312D6D4BF5544880E55C1C93F7A
:105490003B8F68B52882A4BF88B20175E0EF493F11
:1054A00009F7FD0DE13D023F4B2D8A1C273A03C051
:1054B000C88A599CE52A004059018D1B6C06E6BF3D
:1054C00082922EB1C5B8B33F4FBB610567ACDD3FDB
:1054D000182D4454FB21E93F9BF681D20B73EF3F1B
:1054E000182D4454FB21F93FE2652F227F2B7A3C93
:1054F000075C143326A6813CBDCBF07A8807703C4C
:10550000075C143326A6913CC4EB98999999C9BFBE
:10551000711623FEC671BCBF6D9A74AFF2B0B3BFF3
:105520009AFDDE522DDEADBF2F6C6A2C44B4A2BFB3
:105530000D5555555555D53FFF8300922449C23F1F
:105540006E204CC5CD45B73F513DD0A0660DB13F53
:10555000EB0D76244B7BA93F11DA22E33AAD903F65
:105560004C5555555555A53F7751C1166CC156BF81
:105570009015CB19A001FA3EAD529C804F7E92BE91
:10558000C4B1B4BD9EEE213ED43888BEE9FAA8BDB0
:10559000000000000000000000004054FB21F93F23
:1055A0003163621A61B4D03D0000601A61B4D03D2D
:1055B0007370032E8A19A33B0000002E8A19A33BA7
:1055C000C14920259A837B390000000000000000BB
:1055D0006E83F9A22915444ED15727FCC0DD34F55E
:1055E000999562DB4190433CAB6351FE61C5BBDEE4
:1055F0003A6E24B7E0D24D42EA2E49061C92D109F8
:105600001CEB1DFE3EA729B1F53582E88444BB2E74
:1056100026709CE9417E5FB439D69139F4395383C1
:105620008B5F849C3B28F9BDFF97F81F0F9805DE20
:105630008B112FEF1F6D0A5ACF7E366DB709CB271E
:10564000663F464F2DEA5F9EC7BA27757BF1E5EBB3
:10565000F739073DEA92528AB15FFB6B085D8D1FF7
:10566000A6F810111111813FD561C119A0012ABFFF
:105670007DFEB157E31DC73EEB9C2B8AE6E55ABE83
:105680007CD5CF5A3AD9E53DA85600080000002045
:10569000B0000000C401000858570008B000002006
:1056A000E8060000E0010008007A030A000000009C
:1056B00000000000010203040607080900000000C2
:1056C00001020304010203040607080900000000A8
:1056D00000000000000000000000000000000000CA
:1056E00000000000000000006FFF000074013C009B
:1056F000E5FF0F00000000000000000000000000B7
:105700000000000000000000000000000000000099
:105710000000000000000000000000000000000089
:105720000000000000000000000000000000000079
:105730000000000000000000000000000000000069
:105740000000000000000000000000000000000059
:08575000000000000000000051
:040000050800018965
:00000001FF
