:05032D0012006780FBD7
:10024800E4FDFCC3ED9FEC9E5015E4FBFA0BBB00EC
:0F025800010AEB640C4A70F50DBD00010C80E447
:010267002274
:10026800E4FDFCC3ED9FEC9E5015E4FBFA0BBB00CC
:0F027800010AEB64784A70F50DBD00010C80E4BB
:010287002254
:0D02D5003443101001FEFDFBF7EFDFBF7F8B
:1002B8007FD07E07120248C293D294C297D292226C
:10028800E4FEEF30E704D2958002C295EF25E0FF47
:0E029800D297309603430701C2970EBE08E4CA
:0102A6002235
:1002A700C294120288AC07AF05120288D294AF0439
:0102B7002224
:0C02C800C294120288E4FF120288D29453
:0102D4002207
:0601E8008B128A1389143A
:1001EE00C294120288AD07E4FCECC395155017E4D7
:1001FE00FF120288AB12AA13A9148C82758300EF2A
:0A020E001201480C80E3D294AF0502
:0102180022C3
:060219008B128A13891408
:10021F00C294120288AD07E4FCECC395155015ABE0
:10022F0012AA13A9148C8275830012011BFF1202EC
:08023F00880C80E5D294AF05A4
:010247002294
:1000C500C2937BFF7A0279D57515057F3012021927
:1000D5007BFF7A0279D57515057F2A1202197D01F4
:1000E5007F211202A77F221202A77D0A7F24120216
:1000F500A77D087F311202A77D407F251202A77DCB
:10010500077F261202A77D0F7F201202A7D2937FB9
:06011500057E00020268F5
:1001B6007F071202C88F08E50830E623C2937B004A
:1001C6007A0079097515087F611201E87DFF7F279E
:1001D6001202A7C2947FE2120288D2947F01227F84
:0201E6000022F5
:0902EE00C281D280D282C28322B7
:0902F700C281C280C282C28322CE
:09030000D281C280C282D28322A4
:09030900D281C280D282C283229B
:09031200C281D280C282D2832292
:09031B00C281C280D282C2832299
:09032400C281D280C282C2832290
:100067007FE87E031202481202B81200C57F647E41
:10007700001202681201B6EF603AE509B4FE0312F6
:1000870002EEE509B4FB03120300E509B4FD031210
:10009700031BE509B4F703120324E509B4EF0312C0
:1000A7000312E509B4DF031202F7E509B4BFBB1277
:0E00B700030980B6C281C280C282C28380ACBF
:100003007FE87E031202481202B81200C57F647EA5
:10001300001202681201B6EF6039E509B4FE02C2AC
:1000230080E509B4FB02C281E509B4FD02C282E5A1
:1000330009B4F702C283E509B4EF02C284E509B447
:10004300DF02C285E509B4BF02C286E509B47F13A6
:10005300C28722D280D281D282D283D284D285D265
:0400630086D2872298
:10016A0020900C3091093092062093030202EE305F
:10017A00900C3091092092062093030203242090C8
:10018A000C20910930920630930302031B20900C35
:10019A0020910920920630930302030930900C2023
:0C01AA00910920920620930312031222F8
:030000000202E217
:0C02E200787FE4F6D8FD75811502032D2D
:10011B00BB010CE58229F582E5833AF583E0225099
:10012B0006E92582F8E622BBFE06E92582F8E222E3
:0D013B00E58229F582E5833AF583E49322FD
:10014800F8BB010DE58229F582E5833AF583E8F0ED
:10015800225006E92582C8F622BBFE05E92582C899
:02016800F22281
:00000001FF
