:1014870030303030C4EA3030D4C23030C8D52020B4
:101497000020203030CAB13030B7D63030C3EB200F
:1014A700200025303264002530346400202030309D
:0D14B7002020303020203030202020200068
:04140800026D000071
:10163F00758902758C38758A38D2AFD2A9D28C22AF
:100C950012157612163FE55B6003020DB4E55A6046
:100CA50003020DADE559701F7F011215C57BFF7A53
:100CB5001479877D01E4FF1213B47BFF7A147998C8
:100CC5007D02E4FF1213B4750BFF750C14750DA9A5
:100CD50085270E85280F7B007A00792B1209957BD5
:100CE500007A00792B7D027F051213B4750BFF7511
:100CF5000C14750DA985530E85540F7B007A007968
:100D05002E1209957B007A00792E7D027F0312133E
:100D1500B4750BFF750C14750DA985570E85580F05
:100D25007B007A0079311209957B007A0079317D53
:100D3500027F011213B4750BFF750C14750DAE858A
:100D4500250E85260F7B007A0079341209957B00E4
:100D55007A0079347D01E4FF1213B4750BFF750C2D
:100D650014750DA9855D0E855E0F7B007A007937B8
:100D75001209957B007A0079377D017F031213B440
:100D8500750BFF750C14750DA9855F0E85600F7BBE
:100D9500007A00793A1209957B007A00793A7D014B
:100DA5007F051213B412000EE55A600312000EE51A
:100DB5005B64016003020ECFE55A6003020EC8E5CD
:100DC50022701F7F011215C57BFF7A1479B37D014F
:100DD500E4FF1213B47BFF7A1479B37D02E4FF12AA
:100DE50013B4750BFF750C14750DA985290E852A8D
:100DF5000F7B007A0079401209957B007A007940D3
:100E05007D027F031213B4750BFF750C14750DA9C4
:100E150085550E85560F7B007A0079431209957B1F
:100E2500007A0079437D027F011213B4750BFF75BB
:100E35000C14750DA985610E85620F7B007A00790A
:100E45004C1209957B007A00794C7D017F051213C0
:100E5500B4750BFF750C14750DA985630E85640FAC
:100E65007B007A0079491209957B007A0079497DE2
:100E7500017F031213B4750BFF750C14750DA9854D
:100E8500650E85660F7B007A0079461209957B0011
:100E95007A0079467D017F011213B4750BFF750C3D
:100EA50014750DA985230E85240F7B007A00793DE5
:100EB5001209957B007A00793D7D027F051213B4F6
:100EC50012000EE55A600312000EE558B5561BE5F3
:100ED50057B55516E554B52A11E553B5290CE5283E
:100EE500B52407E527B52302C2A3E5562566FFE528
:100EF500553565FEEF65587003EE65576003020CC6
:100F05009BE52A2564FFE5293563FEEF65547003EB
:100F1500EE65536003020C9BE5242562FFE523354E
:100F250061FEEF65287003EE65276003020C9BD216
:040F3500A3020C9B6C
:03000B00020F39A8
:100F3900C0E0C0F0C0D075D000C000C004C005C07A
:100F490006C007056EE56E7002056DC39488E56DF0
:100F590094135003021095756D00756E000528E510
:100F69002870020527943CE5276480948050030289
:100F790010957527007528000554E554700205532E
:100F8900943CE55364809480500302109575530096
:100F99007554000558E558700205579418E55764CB
:100FA90080948050030210957557007558000560AC
:100FB900E5607002055FAE25AF267C017D901211B8
:100FC90014ED4C601DAE25AF267C007D0412111472
:100FD900ED4C701BAE25AF26FC7D64121114ED4C4F
:100FE900600DE55E6402455D7010755C1D800BE562
:100FF9005E6402455D7003755C1CE55E6401455DD8
:101009006030E55E6403455D6028E55E6405455D25
:101019006020E55E6407455D6018E55E6408455D2E
:101029006010E55E640A455D6008E55E640C455D37
:101039007003755C1FE55E6404455D6018E55E64D8
:1010490006455D6010E55E6409455D6008E55E641E
:101059000B455D7003755C1ED3E560955C7480F883
:10106900655F984027755F00756001055EE55E70F4
:1010790002055DD3940CE55D64809480400E755D36
:1010890000755E010526E52670020525D007D00604
:0D109900D005D004D000D0D0D0F0D0E0328F
:10160F00D3EF9400EE940040147D6E7C00ED1D70BE
:0D161F00011CED4C70F7EF1F70E61E80E31C
:01162C00229B
:1015C5008F0DC2B27F057E0012160FC2B1C2B08563
:1015D5000D907F0A7E0012160FD2B07F057E001295
:0515E500160FC2B02248
:1015EA008F0DD2B27F057E0012160FC2B1C2B0852E
:1015FA000D907F0A7E0012160FD2B07F057E001270
:05160A00160FC2B02222
:10157600C2B7D2847F011215C57F057E0012160FF1
:101586007F301215C57F057E0012160F7F0C1215CF
:08159600C57F057E0002160F5F
:1013B4008F088D098B0A8A0B890CE5097006E508EC
:1013C4002480801FE509B40106E50824908014E513
:1013D40009B40206E50824888009E509B40308E590
:1013E400082498FF1215C5AB0AAA0BA90C1210A663
:1013F400FF60101215EA7401250CF50CE4350BF5A9
:041404000B80E42253
:0A165F0025303264002530346400A9
:10140C00015A00015B000122FF0159FF022700383D
:10141C000253003B02570006022507DE025D000C5A
:10142C00025F00190223000002290000025500008F
:0C143C0002610000026300000265000075
:10000E0030A0030200CC7F0A7E0012160F30A00330
:10001E000200CCC2A330A0FDD2A3055AE55AC39468
:10002E00074003E4F55AE55B7049E55AB407005002
:10003E0042900046F828287302005B02006102001D
:10004E006C02007002007402007802007CD28C7F79
:10005E000C801DC28C7F0F1215C57F8D80127F8B79
:10006E00800E7F89800A7F9180067F9380027F9524
:10007E001215C5E55B64017045E55AB40700503EA4
:10008E00900095F82828730200AA0200AE0200B76D
:10009E000200BB0200BF0200C30200C77F0C801B20
:1000AE007F0F1215C57F8D80127F8B800E7F89800A
:1000BE000A7F9180067F9380027F951215C520A13D
:1000CE001D7F0A7E0012160F20A113C2A330A1FDC0
:1000DE00D2A3055BE55BD394014003E4F55B30B638
:1000EE000302050A7F0A7E0012160F30B6030205C0
:1000FE000AC2A330B6FDD2A3E55B6003020351E54D
:10010E005A24FE60611470030201B61470030201DA
:10011E00F814700302022914700302026C240560A5
:10012E00030203510528E52870020527C3943CE518
:10013E0027648094804005E4F527F528750BFF753C
:10014E000C16750D5F85270E85280F7B007A0079BA
:10015E002B1209957B007A00792B7D027F051213F5
:10016E00B47F8D02034E0554E55470020553C394BB
:10017E003CE553648094804005E4F553F554750BCB
:10018E00FF750C16750D5F85530E85540F7B007A27
:10019E0000792E1209957B007A00792E7D027F035D
:1001AE001213B47F8B02034E0558E55870020557A3
:1001BE00C39418E557648094804005E4F557F558CC
:1001CE00750BFF750C16750D5F85570E85580F7BD9
:1001DE00007A0079311209957B007A0079317D021F
:1001EE007F011213B47F8902034E0526E5267002A5
:1001FE000525750BFF750C16750D6485250EF50F0F
:10020E007B007A0079341209957B007A0079347D6F
:10021E0001E4FF1213B47F9102034E055EE55E709A
:10022E0002055DD3940CE55D648094804006755D97
:10023E0000755E01750BFF750C16750D5F855D0EF5
:10024E00855E0F7B007A0079371209957B007A0064
:10025E0079377D017F031213B47F9302034EAE25CF
:10026E00AF267C017D90121114ED4C601DAE25AFB2
:10027E00267C007D04121114ED4C701BAE25AF26AA
:10028E00FC7D64121114ED4C600DE55E6402455D5B
:10029E007010755C1D800BE55E6402455D70037524
:1002AE005C1CE55E6401455D6030E55E6403455DA2
:1002BE006028E55E6405455D6020E55E6407455D8A
:1002CE006018E55E6408455D6010E55E640A455D94
:1002DE006008E55E640C455D7003755C1FE55E6449
:1002EE0004455D6018E55E6406455D6010E55E647C
:1002FE0009455D6008E55E640B455D7003755C1E27
:10030E000560E5607002055FD3955C7480F8655FEB
:10031E00984006755F00756001750BFF750C1675BC
:10032E000D5F855F0E85600F7B007A00793A1209AA
:10033E00957B007A00793A7D017F051213B47F9583
:10034E001215C5E55B6401600302050AE55A24FE39
:10035E0060611470030204031470030204451470E8
:10036E00030204871470030204C824056003020507
:10037E000A0524E52470020523C3943CE52364801A
:10038E0094804005E4F523F524750BFF750C167566
:10039E000D5F85230E85240F7B007A00793D1209AF
:1003AE00957B007A00793D7D027F051213B47F8D17
:1003BE00020507052AE52A70020529C3943CE529A2
:1003CE00648094804005E4F529F52A750BFF750CC1
:1003DE0016750D5F85290E852A0F7B007A007940F0
:1003EE001209957B007A0079407D027F031213B4C7
:1003FE007F8B0205070556E55670020555C3941806
:10040E00E555648094804005E4F555F556750BFF6F
:10041E00750C16750D5F85550E85560F7B007A008F
:10042E0079431209957B007A0079437D027F011290
:10043E0013B47F890205070566E56670020565C37C
:10044E009418E565648094804005E4F565F566755D
:10045E000BFF750C16750D5F85650E85660F7B009F
:10046E007A0079461209957B007A0079467D017FE4
:10047E00011213B47F910205070564E5647002054D
:10048E0063C3943CE563648094804005E4F563F5B2
:10049E0064750BFF750C16750D5F85630E85640F05
:1004AE007B007A0079491209957B007A0079497DA3
:1004BE00017F031213B47F93803F0562E5627002E1
:1004CE000561C3943CE561648094804005E4F56168
:1004DE00F562750BFF750C16750D5F85610E8562E5
:1004EE000F7B007A00794C1209957B007A00794CCB
:1004FE007D017F051213B47F951215C530B5030229
:10050E0009237F0A7E0012160F30B503020923C29B
:10051E00A330B5FDD2A3E55B6003020771E55A2453
:10052E00FE60601470030205D214700302061314E9
:10053E00700302064514700302068A240560030246
:10054E000771E528152870021527C3E527648094E6
:10055E0080500675270075283B750BFF750C1675B8
:10056E000D5F85270E85280F7B007A00792B1209E7
:10057E00957B007A00792B7D027F051213B47F8D57
:10058E0002076EE554155470021553C3E55364808B
:10059E009480500675530075543B750BFF750C1601
:1005AE00750D5F85530E85540F7B007A00792E12E0
:1005BE0009957B007A00792E7D027F031213B47F9A
:1005CE008B02076EE558155870021557C3E5576430
:1005DE008094805006755700755817750BFF750C73
:1005EE0016750D5F85570E85580F7B007A00793191
:1005FE001209957B007A0079317D027F011213B4C6
:10060E007F8902076EE526152670021525750BFFEC
:10061E00750C16750D6485250E85260F7B007A00E8
:10062E0079341209957B007A0079347D01E4FF124A
:10063E0013B47F9102076EE55E155E7002155DC301
:10064E00E55E9401E55D648094805006755D0075ED
:10065E005E0C750BFF750C16750D5F855D0E855E58
:10066E000F7B007A0079371209957B007A00793773
:10067E007D017F031213B47F9302076EAE25AF2662
:10068E007C017D90121114ED4C601DAE25AF267CC1
:10069E00007D04121114ED4C701BAE25AF26FC7DAF
:1006AE0064121114ED4C600DE55E6402455D701030
:1006BE00755C1D800BE55E6402455D7003755C1C08
:1006CE00E55E6401455D6030E55E6403455D60286E
:1006DE00E55E6405455D6020E55E6407455D601876
:1006EE00E55E6408455D6010E55E640A455D600880
:1006FE00E55E640C455D7003755C1FE55E64044544
:10070E005D6018E55E6406455D6010E55E64094552
:10071E005D6008E55E640B455D7003755C1EE5600B
:10072E0015607002155FC3E5609401E55F64809407
:10073E00805006755F00855C60750BFF750C167535
:10074E000D5F855F0E85600F7B007A00793A120986
:10075E00957B007A00793A7D017F051213B47F955F
:10076E001215C5E55B64016003020923E55A24FEF8
:10077E006060147003020821147003020862147082
:10078E00030208A21470030208E2240560030209A2
:10079E0023E524152470021523C3E5236480948079
:1007AE00500675230075243B750BFF750C16750DE1
:1007BE005F85230E85240F7B007A00793D12099503
:1007CE007B007A00793D7D027F051213B47F8D0286
:1007DE000920E52A152A70021529C3E5296480949B
:1007EE00805006752900752A3B750BFF750C167522
:1007FE000D5F85290E852A0F7B007A00794012093C
:10080E00957B007A0079407D027F031213B47F8BB3
:10081E00020920E556155670021555C3E55564803C
:10082E0094805006755500755617750BFF750C168E
:10083E00750D5F85550E85560F7B007A0079431234
:10084E0009957B007A0079437D027F011213B47FF4
:10085E0089020920E566156670021565C3E56564B3
:10086E008094805006756500756617750BFF750CC4
:10087E0016750D5F85650E85660F7B007A007946CD
:10088E001209957B007A0079467D017F011213B41F
:10089E007F91807EE564156470021563C3E5636421
:1008AE00809480500675630075643B750BFF750C64
:1008BE0016750D5F85630E85640F7B007A0079498E
:1008CE001209957B007A0079497D017F031213B4DA
:1008DE007F93803EE562156270021561C3E5616427
:1008EE00809480500675610075623B750BFF750C28
:1008FE0016750D5F85610E85620F7B007A00794C4F
:10090E001209957B007A00794C7D017F051213B494
:10091E007F951215C5E55B6004052280037522FFE5
:0B092E00E55B70030559227559FF229C
:0A166900C0F9A4B0999282F88098AD
:03000300C2802296
:1014C400C280751C8A751DD0051DE51DAE1C7002F9
:1014D400051C144E70F2D280751C8A751DD0051D32
:0D14E400E51DAE1C7002051C144E70F222B6
:10154B00C280751CC3751D50E51D151DAE1C7002A8
:10155B00151C4E70F3D280751CC3751D50E51D15FF
:0B156B001DAE1C7002151C4E70F32218
:1014F100C280751EC3751F50E51F151F7002151E92
:10150100E51F451E70F2D280751EC3751F50E51F81
:0D151100151F7002151EE51F451E70F22209
:10162D00C2807FF47E0112160FD2807FF47E0102FC
:02163D00160F86
:10151E007580FE751C00751D087FF47E0112160F76
:10152E00E58025E004F580E51D151D7002151CD320
:0D153E00E51D9400E51C6480948050DD22C2
:101449007580FEE4F51CF51D7FC87E0012160FE5B8
:101459008025E0F56FE580C41313135401F5704539
:101469006FF5807FC87E0012160F051DE51D7002FD
:0D147900051CC39407E51C6480948040CBE3
:011486002243
:10164F00C2A7C2A6C2A5C2A4901670E493F59022B9
:10135C00C2A7D2A6D2A5D2A490166AE493F5907F28
:10136C00017E0012160FD2A7C2A6D2A5D2A4901647
:10137C006BE493F5907F017E0012160FD2A7D2A6D4
:10138C00C2A5D2A490166CE493F5907F017E001256
:10139C00160FD2A7D2A6D2A5C2A490166DE493F5CF
:0813AC00907F017E0002160F84
:0411BF00AB07AA06CA
:1011C3007C007D0A1210BF8D677C007D0AAF03AEE1
:1011D300021210BF7C007D0A1210BF8D687C007D57
:1011E30064AF03AE021210BF7C007D0A1210BF8DE4
:1011F30069AE02AF037C037DE81210BFC2A7D2A67B
:10120300D2A5D2A4EF90166993F5907F017E0012C8
:10121300160FD2A7C2A6D2A5D2A4E56990166993E8
:10122300F5907F017E0012160FD2A7D2A6C2A5D2D7
:10123300A4E56890166993F5907F017E0012160F5E
:10124300D2A7D2A6D2A5C2A4E56790166993F5905A
:071253007F017E0002160F6F
:1012E600ED75F00A8485F06AED75F00A84F56BEF0A
:1012F60075F00A8485F06CEF75F00A84C2A7D2A651
:10130600D2A5D2A490166993F5907F017E0012169D
:101316000FD2A7C2A6D2A5D2A4E56C90166993F502
:10132600907F017E0012160FD2A7D2A6C2A5D2A424
:10133600E56B90166993F5907F017E0012160FD229
:10134600A7D2A6D2A5C2A4E56A90166993F5907FA6
:06135600017E0002160FEB
:0300000002125A8F
:0C125A00787FE4F6D8FD7581700212A1C7
:1010A600BB010689828A83E0225002E722BBFE0248
:0910B600E32289828A83E493227B
:1010BF00BC000BBE0029EF8DF084FFADF022E4CC15
:1010CF00F875F008EF2FFFEE33FEEC33FCEE9DECDE
:1010DF00984005FCEE9DFE0FD5F0E9E4CEFD22ED24
:1010EF00F8F5F0EE8420D21CFEADF075F008EF2F6E
:1010FF00FFED33FD4007985006D5F0F222C398FD5F
:05110F000FD5F0EA22FB
:10111400C2D5EC30E709B2D5E4C39DFDE49CFCEEF6
:1011240030E715B2D5E4C39FFFE49EFE1210BFC39F
:10113400E49DFDE49CFC80031210BF30D507C3E49A
:061144009FFFE49EFE2265
:10093900E517240BF8E60517227808300702780B2B
:10094900E475F0011211890210A62000EB7F2ED266
:10095900008018EF540F2490D43440D4FF30040B96
:10096900EF24BFB41A0050032461FFE51860021593
:1009790018051BE51B7002051A30070D7808E47588
:10098900F001121189EF02117702159E7403D20743
:100999008003E4C207F5178B088A09890AE4F51868
:1009A900F51AF51BE51860077F2012097480F575A3
:1009B90019FFC201C200C202C203C205C206C208AF
:1009C900120942FF700D3007057F00120985AF1B20
:1009D900AE1A22B4255FC2D5C204120942FF24D03F
:1009E900B40A00501A75F00A781830D50508B6FF10
:1009F9000106C6A426F620D5047002D20380D924A4
:100A0900CFB41A00EF5004C2E5D204020B85D2011B
:100A190080C6D20080C0D20280BCD2D580BAD205AD
:100A290080B47F201209742002077401B5180040B0
:100A3900F1120939FF1209740209ADD208D20680F0
:100A490095120939FB120939FA120939F94A4B7019
:100A59000679567A0C7BFF20022EE518602A7E0063
:100A69008E8275830012114A60060EEE651970F0C8
:100A7900C2D5EBC0E0EAC0E0E9C0E0EE120BCCD091
:100A8900E0F9D0E0FAD0E0FB1210A6FF60AAEBC0B3
:100A9900E0EAC0E0E9C0E0120974D0E02401F9D02D
:100AA900E03400FAD0E0FBE5190460DCD519D980FF
:100AB900877BFF7A0B79C8D202809C7910800279F2
:100AC90008C206C2088008D2D5790A8004790AC208
:100AD900D5E519047002F519E4FAFDFEFF1209398A
:100AE900FC7B08200113120939FD7B1030000A1222
:100AF9000939FE120939FF7B20EC3382D592D55092
:100B090013C3E43000069FFFE49EFEE42001039D29
:100B1900FDE49CFCE4CBF8C201EC700CCFCECDCC4B
:100B2900E824F8F870F38017C3EF33FFEE33FEEDD6
:100B390033FDEC33FCEB33FB994002FB0FD8E9EBB7
:100B4900300105F8D0E0C448B201C0E00AEC4D4ECE
:100B59004F78207B0070C2EAB5190040BCC0E01292
:100B69000BCED0F0D0E0200104C4C0E0C4B201C073
:100B7900F012095DD0F0D5F0EB0209AD1211990A16
:100B89004A530AC4580A1B4C0A17420AC84F0AD0CA
:0F0B9900440AD0490A30430AD6550ABA460ABA66
:100BA800450ABA470C76500A1F2D0A232E0A462BEF
:100BB8000A27230A44200C5F2A09DF4800000A3E5E
:100BC8003F3F3F00790AA2D5200314300509B91028
:100BD800020404B9080104A2D52006025001042029
:100BE80002689202B518005034C0E07F2030031923
:100BF8007F30A20272067205500F120C25C202C283
:100C080006C205C2087F30800F300503E9C0E01234
:100C18000974300503D0E0F9D0E0B518CC300517D9
:100C28007F30B9100C1209747F583004077F788020
:100C380003B908031209743002057F2D0209747F75
:100C4800202008F87F2B2006F322920280CF286EFE
:100C5800756C6C2900D2011209393001F8C201788B
:100C68001830D50108F60209DF2D504349581209FA
:100C7800392403B405004001E4900C71931209650E
:0D0C8800743A120965D203751804020AC4FB
:10126600020C95E493A3F8E493A34003F68001F2FD
:1012760008DFF48029E493A3F85407240CC8C33389
:10128600C4540F4420C8834004F456800146F6DF58
:10129600E4800B0102040810204080901408E47ECC
:1012A600019360BCA3FF543F30E509541FFEE4934D
:1012B600A360010ECF54C025E060A840B8E493A314
:1012C600FAE493A3F8E493A3C8C582C8CAC583CA3F
:1012D600F0A3C8C582C8CAC583CADFE9DEE780BEF7
:0114480000A3
:10114A00BB010CE58229F582E5833AF583E022505A
:10115A0006E92582F8E622BBFE06E92582F8E222A4
:0D116A00E58229F582E5833AF583E49322BE
:10117700BB010689828A83F0225002F722BBFE0157
:02118700F32251
:10118900FAE6FB0808E6F925F0F618E6CA3AF62267
:10119900D083D082F8E4937012740193700DA3A3E5
:1011A90093F8740193F5828883E4737402936860F9
:0611B900EFA3A3A380DFF9
:10159E00EFB40A07740D1215A9740A309811A899A0
:1015AE00B8130CC2983098FDA899C298B811F630AD
:0715BE0099FDC299F5992285
:00000001FF
