:10018200758901758CFC758A18D28CD2A9D2AF22DE
:0800030012018212000E80FBC5
:03000B0002012EC1
:10012E00C0E0C0D0758CFC758A180511E5117002FF
:10013E000510C394E8E510648094834006751000A2
:10014E007511000513E51370020512C394E8E5124C
:10015E00648094834006751200751300D0D0D0E0F1
:01016E00325E
:0501D200D282C283226D
:0501D700C282D2832268
:0501DC00C280D2812267
:0501E100D280C2812262
:06016F001201D21201DCB6
:0D017500D3EF9DEE9C5003D29122C2912247
:0D01BC00D3EF9DEE9C5003D29222C29222FE
:0E01920012016FAF03AE02AD0FAC0E0201BC46
:0E01A00012016FAF03AE02AD0FAC0E0201BC38
:0E01AE0012016FAF03AE02AD0FAC0E0201BC2A
:0801C900021000000212000008
:10000E0030901E30911B309218309315750E01757D
:10001E000FF4AB13AA127DF47C01AF11AE100201E6
:10002E0092309019309116209213209310750E0075
:10003E00750FC8AB13AA127DF47C01804F2090116E
:10004E0020910E30920B309308750E01750FF480CF
:10005E001220901E20911B209218309315750E02BF
:10006E00750FBCAB13AA127DC87C00AF11AE100287
:10007E0001A030901E20911B209218209315750E12
:10008E0000750FC8AB13AA127DBC7C02AF11AE1067
:04009E001201AE227B
:030000000200A259
:0C00A200787FE4F6D8FD7581130200E9B8
:1000AE00020003E493A3F8E493A34003F68001F265
:1000BE0008DFF48029E493A3F85407240CC8C33353
:1000CE00C4540F4420C8834004F456800146F6DF22
:1000DE00E4800B01020408102040809001C9E47EE8
:1000EE00019360BCA3FF543F30E509541FFEE49317
:1000FE00A360010ECF54C025E060A840B8E493A3DE
:10010E00FAE493A3F8E493A3C8C582C8CAC583CA08
:10011E00F0A3C8C582C8CAC583CADFE9DEE780BEC0
:0101D100002D
:00000001FF
